:020000040000FA
:10C000003DB8F3960000000000020000BC490300A8
:10C010000000000000000000000000000000000020
:10C02000FFFFFFFFFFFFFFFFFFFFFFFFFFFFFFFF20
:10C03000FFFFFFFFFFFFFFFFFFFFFFFFFFFFFFFF10
:10C04000FFFFFFFFFFFFFFFFFFFFFFFFFFFFFFFF00
:10C05000FFFFFFFFFFFFFFFFFFFFFFFFFFFFFFFFF0
:10C06000FFFFFFFFFFFFFFFFFFFFFFFFFFFFFFFFE0
:10C07000FFFFFFFFFFFFFFFFFFFFFFFFFFFFFFFFD0
:10C08000FFFFFFFFFFFFFFFFFFFFFFFFFFFFFFFFC0
:10C09000FFFFFFFFFFFFFFFFFFFFFFFFFFFFFFFFB0
:10C0A000FFFFFFFFFFFFFFFFFFFFFFFFFFFFFFFFA0
:10C0B000FFFFFFFFFFFFFFFFFFFFFFFFFFFFFFFF90
:10C0C000FFFFFFFFFFFFFFFFFFFFFFFFFFFFFFFF80
:10C0D000FFFFFFFFFFFFFFFFFFFFFFFFFFFFFFFF70
:10C0E000FFFFFFFFFFFFFFFFFFFFFFFFFFFFFFFF60
:10C0F000FFFFFFFFFFFFFFFFFFFFFFFFFFFFFFFF50
:10C10000FFFFFFFFFFFFFFFFFFFFFFFFFFFFFFFF3F
:10C11000FFFFFFFFFFFFFFFFFFFFFFFFFFFFFFFF2F
:10C12000FFFFFFFFFFFFFFFFFFFFFFFFFFFFFFFF1F
:10C13000FFFFFFFFFFFFFFFFFFFFFFFFFFFFFFFF0F
:10C14000FFFFFFFFFFFFFFFFFFFFFFFFFFFFFFFFFF
:10C15000FFFFFFFFFFFFFFFFFFFFFFFFFFFFFFFFEF
:10C16000FFFFFFFFFFFFFFFFFFFFFFFFFFFFFFFFDF
:10C17000FFFFFFFFFFFFFFFFFFFFFFFFFFFFFFFFCF
:10C18000FFFFFFFFFFFFFFFFFFFFFFFFFFFFFFFFBF
:10C19000FFFFFFFFFFFFFFFFFFFFFFFFFFFFFFFFAF
:10C1A000FFFFFFFFFFFFFFFFFFFFFFFFFFFFFFFF9F
:10C1B000FFFFFFFFFFFFFFFFFFFFFFFFFFFFFFFF8F
:10C1C000FFFFFFFFFFFFFFFFFFFFFFFFFFFFFFFF7F
:10C1D000FFFFFFFFFFFFFFFFFFFFFFFFFFFFFFFF6F
:10C1E000FFFFFFFFFFFFFFFFFFFFFFFFFFFFFFFF5F
:10C1F000FFFFFFFFFFFFFFFFFFFFFFFFFFFFFFFF4F
:10C20000C07A002059780200039303002D780200C1
:10C210002D7802002D7802002D7802000000000029
:10C220000000000000000000000000002970020073
:10C230002D78020000000000D56F02002D7802006A
:10C24000D9700200F1B70300D9700200D970020062
:10C25000D9700200D9700200D9700200D9700200B2
:10C26000B9B70300D9700200D9700200D7B7030034
:10C27000D9700200D9700200D9700200D970020092
:10C28000D9700200D9700200D9700200D970020082
:10C29000D9700200D9700200D9700200D970020072
:10C2A000D9700200D9700200D9700200D970020062
:10C2B000D9700200D9700200D9700200D970020052
:10C2C000D9700200D9700200D9700200D970020042
:10C2D000D9700200D9700200D9700200FFFFFFFF81
:10C2E00081F0004102E000BF83F0004330B54FEA27
:10C2F00041044FEA430594EA050F08BF90EA020F94
:10C300001FBF54EA000C55EA020C7FEA645C7FEA26
:10C31000655C00F0E2804FEA5454D4EB5555B8BF49
:10C320006D420CDD2C4480EA020281EA030382EABA
:10C33000000083EA010180EA020281EA0303362D4C
:10C3400088BF30BD11F0004F4FEA01314FF4801C1F
:10C350004CEA113102D0404261EB410113F0004F31
:10C360004FEA03334CEA133302D0524263EB4303E8
:10C3700094EA050F00F0A780A4F10104D5F1200E86
:10C380000DDB02FA0EFC22FA05F2801841F10001E1
:10C3900003FA0EF2801843FA05F359410EE0A5F1B5
:10C3A00020050EF1200E012A03FA0EFC28BF4CF0E6
:10C3B000020C43FA05F3C01851EBE37101F000459C
:10C3C00007D54FF0000EDCF1000C7EEB00006EEBA9
:10C3D0000101B1F5801F1BD3B1F5001F0CD3490833
:10C3E0005FEA30004FEA3C0C04F101044FEA44528A
:10C3F00012F5800F80F09A80BCF1004F08BF5FEA11
:10C40000500C50F1000041EB045141EA050130BDF0
:10C410005FEA4C0C404141EB0101013C28BFB1F502
:10C42000801FE9D291F0000F04BF01460020B1FA4D
:10C4300081F308BF2033A3F10B03B3F120020CDA20
:10C440000C3208DD02F1140CC2F10C0201FA0CF0FE
:10C4500021FA02F10CE002F11402D8BFC2F1200C63
:10C4600001FA02F120FA0CFCDCBF41EA0C01904019
:10C47000E41AA2BF01EB0451294330BD6FEA040462
:10C480001F3C1CDA0C340EDC04F11404C4F120024D
:10C4900020FA04F001FA02F340EA030021FA04F35F
:10C4A00045EA030130BDC4F10C04C4F1200220FAB6
:10C4B00002F001FA04F340EA0300294630BD21FAF4
:10C4C00004F0294630BD94F0000F83F4801306BFBA
:10C4D00081F480110134013D4EE77FEA645C18BFAE
:10C4E0007FEA655C29D094EA050F08BF90EA020F45
:10C4F00005D054EA000C04BF1946104630BD91EA3D
:10C50000030F1EBF0021002030BD5FEA545C05D13F
:10C510004000494128BF41F0004130BD14F580047E
:10C520003CBF01F5801130BD01F0004545F0FE41F2
:10C5300041F470014FF0000030BD7FEA645C1ABF27
:10C54000194610467FEA655C1CBF0B46024650EA5E
:10C55000013406BF52EA033591EA030F41F400218A
:10C5600030BD00BF90F0000F04BF0021704730B510
:10C570004FF4806404F132044FF000054FF00001E5
:10C5800050E700BF90F0000F04BF0021704730B5A6
:10C590004FF4806404F1320410F0004548BF40427B
:10C5A0004FF000013EE700BF42004FEAE2014FEAD0
:10C5B00031014FEA02701FBF12F07F4393F07F4FAB
:10C5C00081F06051704732F07F4208BF704793F0AE
:10C5D0007F4F04BF41F40021704730B54FF46074C1
:10C5E00001F0004521F000411CE700BF50EA0102C4
:10C5F00008BF704730B54FF000050AE050EA01026D
:10C6000008BF704730B511F0004502D5404261EBDC
:10C6100041014FF4806404F132045FEA915C3FF41D
:10C62000D8AE4FF003025FEADC0C18BF03325FEABA
:10C63000DC0C18BF033202EBDC02C2F1200300FA6B
:10C6400003FC20FA02F001FA03FE40EA0E0021FA90
:10C6500002F11444BDE600BF70B54FF0FF0C4CF47E
:10C66000E06C1CEA11541DBF1CEA135594EA0C0F30
:10C6700095EA0C0F00F0DEF82C4481EA030621EA6B
:10C680004C5123EA4C5350EA013518BF52EA0335A6
:10C6900041F4801143F4801338D0A0FB02CE4FF058
:10C6A0000005E1FB02E506F00042E0FB03E54FF088
:10C6B0000006E1FB03569CF0000F18BF4EF0010E80
:10C6C000A4F1FF04B6F5007F64F5407404D25FEA7C
:10C6D0004E0E6D4146EB060642EAC62141EA55512F
:10C6E0004FEAC52040EA5E504FEACE2EB4F1FD0C71
:10C6F00088BFBCF5E06F1ED8BEF1004F08BF5FEAEF
:10C70000500E50F1000041EB045170BD06F00046A0
:10C7100046EA010140EA020081EA0301B4EB5C044D
:10C72000C2BFD4EB0C0541EA045170BD41F4801145
:10C730004FF0000E013C00F3AB8014F1360FDEBF6A
:10C74000002001F0004170BDC4F10004203C35DA46
:10C750000C341BDC04F11404C4F1200500FA05F3C9
:10C7600020FA04F001FA05F240EA020001F000426A
:10C7700021F0004110EBD37021FA04F642EB0601E0
:10C780005EEA430E08BF20EAD37070BDC4F10C040A
:10C79000C4F1200500FA04F320FA05F001FA04F2CE
:10C7A00040EA020001F0004110EBD37041F10001BA
:10C7B0005EEA430E08BF20EAD37070BDC4F12005C5
:10C7C00000FA05F24EEA020E20FA04F301FA05F22D
:10C7D00043EA020321FA04F001F0004121FA04F2D5
:10C7E00020EA020000EBD3705EEA430E08BF20EAA5
:10C7F000D37070BD94F0000F0FD101F000464000DF
:10C8000041EB010111F4801F08BF013CF7D041EA60
:10C81000060195F0000F18BF704703F00046520064
:10C8200043EB030313F4801F08BF013DF7D043EA35
:10C830000603704794EA0C0F0CEA135518BF95EAEB
:10C840000C0F0CD050EA410618BF52EA4306D1D172
:10C8500081EA030101F000414FF0000070BD50EA91
:10C86000410606BF1046194652EA430619D094EA1B
:10C870000C0F02D150EA013613D195EA0C0F05D105
:10C8800052EA03361CBF104619460AD181EA030159
:10C8900001F0004141F0FE4141F470014FF0000011
:10C8A00070BD41F0FE4141F4780170BD70B54FF0AC
:10C8B000FF0C4CF4E06C1CEA11541DBF1CEA13552C
:10C8C00094EA0C0F95EA0C0F00F0A7F8A4EB05040E
:10C8D00081EA030E52EA03354FEA013100F0888005
:10C8E0004FEA03334FF0805545EA131343EA1263CE
:10C8F0004FEA022245EA111545EA10654FEA002683
:10C900000EF000419D4208BF964244F1FD0404F53B
:10C91000407402D25B084FEA3202B61A65EB030597
:10C920005B084FEA32024FF480104FF4002CB6EB54
:10C93000020E75EB030E22BFB61A754640EA0C00D4
:10C940005B084FEA3202B6EB020E75EB030E22BF14
:10C95000B61A754640EA5C005B084FEA3202B6EB55
:10C96000020E75EB030E22BFB61A754640EA9C0014
:10C970005B084FEA3202B6EB020E75EB030E22BFE4
:10C98000B61A754640EADC0055EA060E18D04FEAA2
:10C99000051545EA16754FEA06164FEAC30343EA42
:10C9A00052734FEAC2025FEA1C1CC0D111F4801F0F
:10C9B0000BD141EA00014FF000004FF0004CB6E708
:10C9C00011F4801F04BF01430020B4F1FD0C88BFA7
:10C9D000BCF5E06F3FF6AFAEB5EB030C04BFB6EBB2
:10C9E000020C5FEA500C50F1000041EB045170BDA5
:10C9F0000EF0004E4EEA113114EB5C04C2BFD4EBD2
:10CA00000C0541EA045170BD41F480114FF0000E55
:10CA1000013C90E645EA060E8DE60CEA135594EAD1
:10CA20000C0F08BF95EA0C0F3FF43BAF94EA0C0FD4
:10CA30000AD150EA01347FF434AF95EA0C0F7FF449
:10CA400025AF104619462CE795EA0C0F06D152EA9D
:10CA500003353FF4FDAE1046194622E750EA410681
:10CA600018BF52EA43067FF4C5AE50EA41047FF492
:10CA70000DAF52EA43057FF4EBAE12E74FEA4102F5
:10CA8000B2F1E04324BFB3F5001CDCF1FE5C0DD92C
:10CA900001F0004C4FEAC0024CEA5070B2F1004F76
:10CAA00040EB830008BF20F00100704711F0804F79
:10CAB00021D113F13872BCBF01F00040704741F43E
:10CAC00080114FEA5252C2F11802C2F1200C10FA42
:10CAD0000CF320FA02F018BF40F001004FEAC12326
:10CAE0004FEAD32303FA0CFC40EA0C0023FA02F3CA
:10CAF0004FEA4303CCE77FEA625307D150EA0133A0
:10CB00001EBF4FF0FE4040F44000704701F000406F
:10CB100040F0FE4040F40000704700BF80F000404D
:10CB200002E000BF81F0004142001FBF5FEA410305
:10CB300092EA030F7FEA226C7FEA236C6AD04FEA05
:10CB40001262D2EB1363C1BFD2184140484041404A
:10CB5000B8BF5B42192B88BF704710F0004F40F4FC
:10CB6000000020F07F4018BF404211F0004F41F418
:10CB7000000121F07F4118BF494292EA030F3FD0E4
:10CB8000A2F1010241FA03FC10EB0C00C3F12003F7
:10CB900001FA03F100F0004302D5494260EB400086
:10CBA000B0F5000F13D3B0F1807F06D340084FEAF1
:10CBB000310102F10102FE2A51D2B1F1004F40EBE6
:10CBC000C25008BF20F0010040EA0300704749004E
:10CBD00040EB0000013A28BFB0F5000FEDD2B0FAEB
:10CBE00080FCACF1080CB2EB0C0200FA0CF0AABF0E
:10CBF00000EBC25052421843BCBFD04018437047AC
:10CC000092F0000F81F4000106BF80F400000132B1
:10CC1000013BB5E74FEA41037FEA226C18BF7FEA88
:10CC2000236C21D092EA030F04D092F0000F08BFCA
:10CC30000846704790EA010F1CBF0020704712F0B1
:10CC40007F4F04D1400028BF40F00040704712F1F0
:10CC500000723CBF00F50000704700F0004343F055
:10CC6000FE4040F4000070477FEA226216BF08468B
:10CC70007FEA23630146420206BF5FEA412390EA4E
:10CC8000010F40F4800070474FF0000304E000BF44
:10CC900010F0004348BF40425FEA000C08BF7047F5
:10CCA00043F0964301464FF000001CE050EA0102B9
:10CCB00008BF70474FF000030AE000BF50EA0102CE
:10CCC00008BF704711F0004302D5404261EB4101BB
:10CCD0005FEA010C02BF84460146002043F0B643E0
:10CCE00008BFA3F18053A3F50003BCFA8CF2083A05
:10CCF000A3EBC25310DB01FA02FC634400FA02FC0E
:10CD0000C2F12002BCF1004F20FA02F243EB020014
:10CD100008BF20F00100704702F1200201FA02FC76
:10CD2000C2F1200250EA4C0021FA02F243EB020069
:10CD300008BF20EADC7070474FF0FF0C1CEAD052AD
:10CD40001EBF1CEAD15392EA0C0F93EA0C0F6FD06E
:10CD50001A4480EA010C400218BF5FEA41211ED04C
:10CD60004FF0006343EA501043EA5111A0FB013138
:10CD70000CF00040B1F5000F3EBF490041EAD3710D
:10CD80005B0040EA010062F17F02FD2A1DD8B3F189
:10CD9000004F40EBC25008BF20F00100704790F0F8
:10CDA000000F0CF0004C08BF49024CEA502040EA4A
:10CDB00051207F3AC2BFD2F1FF0340EAC250704710
:10CDC00040F400004FF00003013A5DDC12F1190F4E
:10CDD000DCBF00F000407047C2F10002410021FAC0
:10CDE00002F1C2F1200200FA02FC5FEA310040F1D8
:10CDF000000053EA4C0308BF20EADC70704792F051
:10CE0000000F00F0004C02BF400010F4000F013A88
:10CE1000F9D040EA0C0093F0000F01F0004C02BF83
:10CE2000490011F4000F013BF9D041EA0C018FE7F2
:10CE30000CEAD15392EA0C0F18BF93EA0C0F0AD0F8
:10CE400030F0004C18BF31F0004CD8D180EA01001E
:10CE500000F00040704790F0000F17BF90F0004FB7
:10CE6000084691F0000F91F0004F14D092EA0C0F99
:10CE700001D142020FD193EA0C0F03D14B0218BF2C
:10CE8000084608D180EA010000F0004040F0FE4072
:10CE900040F40000704740F0FE4040F4400070470E
:10CEA0004FF0FF0C1CEAD0521EBF1CEAD15392EA8D
:10CEB0000C0F93EA0C0F69D0A2EB030280EA010C7D
:10CEC00049024FEA402037D04FF0805343EA111116
:10CED00043EA10130CF000408B4238BF5B0042F174
:10CEE0007D024FF4000C8B4224BF5B1A40EA0C0019
:10CEF000B3EB510F24BFA3EB510340EA5C00B3EB4B
:10CF0000910F24BFA3EB910340EA9C00B3EBD10F38
:10CF100024BFA3EBD10340EADC001B0118BF5FEA8A
:10CF20001C1CE0D1FD2A3FF650AF8B4240EBC250B3
:10CF300008BF20F0010070470CF0004C4CEA502074
:10CF40007F32C2BFD2F1FF0340EAC250704740F4C3
:10CF500000004FF00003013A37E792F0000F00F0B5
:10CF6000004C02BF400010F4000F013AF9D040EA33
:10CF70000C0093F0000F01F0004C02BF490011F4C7
:10CF8000000F013BF9D041EA0C0195E70CEAD153BF
:10CF900092EA0C0F08D142027FF47DAF93EA0C0FA6
:10CFA0007FF470AF084676E793EA0C0F04D14B028A
:10CFB0003FF44CAF08466EE730F0004C18BF31F03C
:10CFC000004CCAD130F000427FF45CAF31F0004336
:10CFD0007FF43CAF5FE700BF4FF0FF3C06E000BFCF
:10CFE0004FF0010C02E000BF4FF0010C4DF804CDF2
:10CFF0004FEA40024FEA41037FEA226C18BF7FEA02
:10D00000236C11D001B052EA530C18BF90EA010F03
:10D0100058BFB2EB030088BFC81738BF6FEAE17092
:10D0200018BF40F0010070477FEA226C02D15FEA2E
:10D03000402C05D17FEA236CE4D15FEA412CE1D09A
:10D040005DF8040B704700BF844608466146FFE761
:10D050000FB5FFF7C9FF002848BF10F1000F0FBD43
:10D060004DF808EDFFF7F4FF0CBF012000205DF83C
:10D0700008FB00BF4DF808EDFFF7EAFF34BF0120C1
:10D0800000205DF808FB00BF4DF808EDFFF7E0FF5A
:10D0900094BF012000205DF808FB00BF4DF808EDAB
:10D0A000FFF7D2FF94BF012000205DF808FB00BF0E
:10D0B0004DF808EDFFF7C8FF34BF012000205DF8F0
:10D0C00008FB00BF4FEA4002B2F1FE4F0FD34FF012
:10D0D0009E03B3EB12620DD94FEA002343F00043E5
:10D0E00010F0004F23FA02F018BF404270474FF093
:10D0F0000000704712F1610F01D1420205D110F01A
:10D10000004008BF6FF0004070474FF000007047CC
:10D1100042000ED2B2F1FE4F0BD34FF09E03B3EBA1
:10D12000126209D44FEA002343F0004323FA02F0CD
:10D1300070474FF00000704712F1610F01D14202B9
:10D1400002D14FF0FF3070474FF00000704700BF32
:10D150007BB972B90029BEBF00204FF0004106E044
:10D1600008BF00281CBF6FF000414FF0FF3000F0F7
:10D1700057B8ADF1080C6DE904CE002909DB002B8E
:10D180001ADB10F045FEDDF804E0DDE9022304B00F
:10D190007047404261EB4101002B1BDB10F038FE71
:10D1A000DDF804E0DDE9022304B0404261EB410117
:10D1B000524263EB43037047524263EB430310F068
:10D1C00027FEDDF804E0DDE9022304B0404261EB14
:10D1D00041017047524263EB430310F019FEDDF842
:10D1E00004E0DDE9022304B0524263EB43037047DD
:10D1F00053B94AB9002908BF00281CBF4FF0FF31BE
:10D200004FF0FF3000F00CB8ADF1080C6DE904CE22
:10D2100010F0FEFDDDF804E0DDE9022304B0704704
:10D22000704700BF2DE9F00791E8F807B2E8021057
:10D230005B1854EB0C04B2E802104D4156EB0C069F
:10D24000B2E802104F4158EB0C08B2E8021059EB5B
:10D2500001095AEB0C0A80E8F80780410130BDE86B
:10D26000F00770472DE9F00791E8F807B2E80210DF
:10D270005B1A74EB0C04B2E802108D4176EB0C06DD
:10D28000B2E802108F4178EB0C08B2E8021079EB9B
:10D2900001097AEB0C0A80E8F80780414042BDE8BA
:10D2A000F00770472DE9F007524290E87800B1E8A6
:10D2B00080071740DB1918EA020854EB080419EA42
:10D2C000020955EB09051AEA020A56EB0A0678C06C
:10D2D00090E87800B1E8800717407B4118EA02081F
:10D2E00054EB080419EA020955EB09051AEA020A87
:10D2F00056EB0A0678C080410130BDE8F007704760
:10D300002DE9F007524290E87800B1E88007174015
:10D31000DB1B18EA020874EB080419EA020975EB32
:10D3200009051AEA020A76EB0A0678C090E8780046
:10D33000B1E880071740BB4118EA020874EB080403
:10D3400019EA020975EB09051AEA020A76EB0A06E0
:10D3500078C080414042BDE8F00770472DE9F001F8
:10D3600052424FF0040890E8300091E8C000A31B3F
:10D370001340E41AF618EB1B1340ED1AFF1830C0E7
:10D38000C0C1B8F10108EED1BDE8F001704700BF9F
:10D3900000B592E8DC072DE9DC07B1E8805702B45C
:10D3A000A7FB02510A95A8FB020BE7FB6310E9FB00
:10D3B00062B00B91A8FB0351EAFB6201E7FB64B585
:10D3C000E7FB6605E8FB6615CDF830B0A9FB03B6B0
:10D3D000EAFB6316ECFB6356E8FB640BE9FB641B9A
:10D3E000EAFB645BECFB646B0D90ACFB0230059CCC
:10D3F000EEFB6250E9FB6460EAFB64B0E7FB64317A
:10D40000E8FB6451069CE8FB6461E9FB64B1EAFB5C
:10D4100064010E93A7FB0432079CE7FB6462E8FB00
:10D4200064B2E9FB6402EAFB6412049CE9FB645306
:10D43000EAFB6463089CE7FB64B3E8FB6403E9FB75
:10D440006413EAFB64230F955DF8049B99E80006DA
:10D45000DDF80080A9FB0854EAFB68B4DDF8108011
:10D46000ECFB6804EEFB6814E9FB6824EAFB683413
:10D47000DDF80480EEFB6865E9FB68B5EAFB68054A
:10D48000DDF81480ECFB6815EEFB6825E9FB6835D8
:10D49000EAFB68450F96DDF80880AEFB0876E9FBED
:10D4A0006806EAFB6816DDF81880ECFB6826EEFBE0
:10D4B0006836E9FB6846EAFB6856DDF80C80ECFB51
:10D4C00068B7EEFB6807E9FB6817EAFB6827DDF839
:10D4D0001C80ECFB6837EEFB6847E9FB6857EAFB0A
:10D4E000686708B000BD00BF2DE9F14F87B0FFF7B6
:10D4F0004FFFDDF81C8008F1200888E8FF00FFBC22
:10D5000087E87F08BDE8F08F00B591E89857A3FB46
:10D5100003520195A3FB0401E3FB6420E3FB6710C6
:10D520000292A3FB0752E3FB6802E4FB6415E3FBF2
:10D530006805E3FB69250391A4FB07B6E3FB6926B5
:10D54000E3FB6A56E4FB670BE4FB682BE3FB6A5BD7
:10D55000E3FB6C6B0490A4FB0810E4FB6950E3FB55
:10D560006C60E3FB6EB0E7FB6721E4FB6951E4FB11
:10D570006A61E3FB6EB1E4FB6E010592A7FB083222
:10D58000E4FB6A62E4FB6CB2E4FB6E02E7FB6E1242
:10D59000E7FB6853E7FB6963E4FB6CB3E7FB6C03F1
:10D5A000E7FB6E13E8FB6E230695A7FB0954E7FB28
:10D5B0006AB4E7FB6C04E8FB6C14E8FB6E24E9FB3F
:10D5C0006E34E8FB6865E7FB6AB5E8FB6A05E8FBD3
:10D5D0006C15E9FB6C25E9FB6E35EAFB6E45079699
:10D5E000A8FB0976E8FB6A06E9FB6A16E9FB6C26EC
:10D5F000EAFB6C36EAFB6E46ECFB6E56E8FB69B75D
:10D60000E9FB6907E9FB6A17EAFB6A27EAFB6C3763
:10D61000ECFB6C47ECFB6E57EEFB6E6700BD00BF8A
:10D620002DE9F14F87B0FFF76FFFDDF81C8008F19F
:10D63000200888E8FF00FFBC87E87F08BDE8F08F7E
:10D6400030B44FF0000310F8014B11F8015B013AC0
:10D6500084EA050443EA0403F5D1A3F101034FEA88
:10D66000D37030BC704700BF4FF0000310F8012B9F
:10D67000013943EA0203F9D1A3F101034FEAD37060
:10D68000704700BF30B411F8014B12F8015B6C40D9
:10D6900000F8014B013BF6D130BC70472DE9F00793
:10D6A00091E8F807B2E802105B1854EB0C04B2E8FA
:10D6B00002104D4156EB0C06B2E802104F4158EBF8
:10D6C0000C08B2E8021059EB01095AEB0C0A894127
:10D6D000B3F1FF3374F1FF3475F1FF3576F10006D5
:10D6E00077F1000778F1000879F101097AF1FF3A42
:10D6F00051F100015B184C414D4156F1000657F1C4
:10D70000000758F1000859EBD1795AEB010A80E87B
:10D71000F807BDE8F00770472DE9F00791E8F80732
:10D72000B2E802105B1A74EB0C04B2E802108D41EF
:10D7300076EB0C06B2E802108F4178EB0C08B2E8E9
:10D74000021079EB01097AEB0C0A89415B184C4114
:10D750004D4156F1000657F1000758F1000859EB0A
:10D76000D1795AEB010A80E8F807BDE8F007704765
:10D7700018EB040859EB05095AEB060A5BEB070B9B
:10D780005FF0000C4CF1000C18EB050859EB060992
:10D790005AEB070A5BEB070B50EB0C005FF0000C39
:10D7A00051EB0C0152EB0C0263414CF1000CB8EB55
:10D7B000070879F100097AF1000A7BEB040BA84114
:10D7C000B141A241B3416CF1000CBBEB050BB04180
:10D7D000B941AA41BB416CF1000C6FEAEC74B8EBA3
:10D7E000040879EB04097AEB040A7BF1000B70F171
:10D7F000000071F1000172EBD472A3416CF1000CD6
:10D8000018EBEC7859EBEC795AEBEC7A5BF1000B06
:10D8100050F1000451F1000552EBDC7653EBEC774C
:10D820004CF1000C18EBEC7059EBEC715AEBEC720C
:10D830005BF1000354F1000455F1000556EBDC7672
:10D8400057EBEC77704700BF2DE9F14F87B0FFF73A
:10D850009FFDDDF81080DDF81490DDF818A0FFF7CB
:10D8600087FFBDE8000FFFF783FF03B05DF8048B6F
:10D8700088E8FF00BDE8F08F2DE9F14F87B0FFF792
:10D8800043FEDDF81080DDF81490DDF818A0FFF7F6
:10D890006FFFBDE8000FFFF76BFF03B05DF8048B6F
:10D8A00088E8FF00BDE8F08F01480078704700006D
:10D8B0002800002070B5174C6078002823D1012083
:10D8C000607010F082FF6FF0270528B910F0B3FFE9
:10D8D00010B910F0BAFF20B10F486060A5700820A1
:10D8E00010E010F047FF40B910F04EFF28B910F0DB
:10D8F00062FF10B910F073FF30B10748313060603B
:10D90000A5700420E07070BD4FF48F71742003F097
:10D91000FFFB000028000020B4350200084991F9FF
:10D920000320904203DA91F90220904201DC104674
:10D9300070474968801A085C024908567047000021
:10D9400028000020A63502002DE9F0411C46904633
:10D950000D4606466FF01507042804D81CB110F0D8
:10D96000A7FBA84202D83846BDE8F08105484246E8
:10D9700050F8260018B14057824200DD024622705E
:10D980000020F1E728100020002819D0037813495F
:10D99000134A13B1012B0ED011E00379012B00D0F3
:10D9A0006BB943790BB1012B09D18368643B8B427E
:10D9B00005D2C0680EE00379012B02D00BB1002024
:10D9C000704743790BB1012BF9D1C368643B8B429B
:10D9D000F5D280689042F2D8012070473D86010060
:10D9E000FF3F420F10B5054C206810B18047002062
:10D9F0002060BDE8104002F063B800003000002055
:10DA00002DE9F0410E46050004D000F047F8074626
:10DA100000240BE06FF01500BDE8F081204600F017
:10DA200043F890F8260030B1641CE4B2BC42F5D350
:10DA30006FF00B00F0E72746FF2CF9D0204600F0EE
:10DA400033F8044610F000FD84F828702146084899
:10DA500002F00EF884F82700202806D00120256265
:10DA600084F8260037700020D6E76FF02200D3E755
:10DA700073E1010010B5820702D06FF00D0010BDF8
:10DA8000054A1170506028B101EB41010A010021E3
:10DA900010F05FFF002010BD340000200148007826
:10DAA000704700003400002005490A78904201D3F5
:10DAB00000207047496800EB400001EB0010704700
:10DAC000340000200E4910B591F82D00202812D006
:10DAD00091F82D00A1F58062C0EBC00002EB800040
:10DAE00091F82D104068C1EBC10152F82120BDE82A
:10DAF00010400421104740F6BC01702003F008FBE1
:10DB00003C14002070B50546202A28D019481A4C2C
:10DB100000EB831C03EB43030CEB4200234420295E
:10DB200022D00CEB410140784C78487020460146E9
:10DB30000CEB4100914205704078F8D193F8222017
:10DB4000202A1ABF0CEB4202547083F82140202295
:10DB50000CEB410C8CF8012083F8221070BD4FF4BF
:10DB60002671702003F0D4FA93F82040407883F8AF
:10DB70002000DBE7BC1300203C1400202DE9FF4F00
:10DB80008DB015460C4602F005FA284420F07F407F
:10DB900008902168081A0002C11700EB11600012FA
:10DBA000002800F3F080DDF84080CD4808EB480104
:10DBB0000844099090F820502020CA4E0DF1180A10
:10DBC0000DF11C098DF81800202D1CBFC64800EB74
:10DBD000881B38D0C5EBC50006EB800000F10801BA
:10DBE000C0682768381A0002C21700EB12600012E2
:10DBF00029D4E08900B3C889F0B90868039003F01C
:10DC0000DDF8B0F5C67F08BF0D200BD0A0F5407041
:10DC1000563808BF1C2005D0A0F500709F3814BFEF
:10DC200000203220411C0398381A0002C21700EB72
:10DC300012600012884206DB0BEB45008AF80050A8
:10DC40004578202DC6D19AF8000089F80000202DD3
:10DC50001CBFA54800EB881B00F03E81C5EBC5004A
:10DC600006EB80076168D7F8088007F10800A8EB89
:10DC700001010902CA1701EB1261091227D4C089F8
:10DC8000002800F02981E089002840F02581D4F89F
:10DC900000A003F093F8B0F5C67F08BF0D200BD0AD
:10DCA000A0F54070563808BF1C2005D0A0F50070C4
:10DCB0009F3814BF00203220411CA8EB0A0000024C
:10DCC000C21700EB12600012884280F2058189F8C9
:10DCD0000050387E217C884206D90BEB4500457800
:10DCE000202DBBD100F0F8B89DF81C00C0EBC0009F
:10DCF00006EB8000C18AC568E1BBE189D1B38768C2
:10DD000003F05CF8B0F5C67F08BF0D200BD0A0F57E
:10DD10004070563808BF1C2005D0A0F500709F3811
:10DD200014BF00203220411CE81B0002C21700EB88
:10DD30001260001288421DDA03F040F8B0F5C67F89
:10DD400008BF0D200BD0A0F54070563808BF1C202E
:10DD500005D0A0F500709F3814BF002032209DF838
:10DD60001C10401CC1EBC10106EB8101896808440D
:10DD700020F07F450898281A0002C11700EB1160B7
:10DD80000012002803DD11B00020BDE8F08F2068EC
:10DD9000A84202D9A168491CA16061680DF1180A66
:10DDA000081A284425F07F4120F07F40C4E9001084
:10DDB00010980B9009980DF11C0890F82050202025
:10DDC0008DF81800202D3CD047490B9801EB801BA3
:10DDD000C5EBC50006EB800000F10801C0682768AC
:10DDE000381A0002C21700EB1260001229D4E08931
:10DDF00000B3C889F0B9D1F8009002F0DFFFB0F5A8
:10DE0000C67F08BF0D200BD0A0F54070563808BF64
:10DE10001C2005D0A0F500709F3814BF00203220D0
:10DE2000411CA7EB09000002C21700EB12600012B0
:10DE3000884206DB0BEB45008AF800504578202D20
:10DE4000C6D19AF8000088F800000B98202D1CBF5E
:10DE5000254901EB801B3FD0C5EBC50006EB8007D1
:10DE60006068D7F8089007F10801A9EB00000002EC
:10DE7000C21700EB1260001222D4C88960B3E08997
:10DE800050BBD4F800A002F099FFB0F5C67F08BFE0
:10DE90000D200BD0A0F54070563808BF1C2005D0CF
:10DEA000A0F500709F3814BF00203220411CA9EB60
:10DEB0000A000002C21700EB1260001288420BDA5F
:10DEC00088F80050387E217C88427FF60DAF0BEB3E
:10DED00045004578202DBFD111B00120BDE8F08F5D
:10DEE0003C1400203C100020BC1300202DE9F84F0A
:10DEF0000F46064601EB47004B49994608449246B7
:10DF000090F8204020201070A1F58068202C1CBFC4
:10DF1000464800EB871B38D0C4EBC40008EB8000F8
:10DF200000F10801C0683568281A0002C21700EB2A
:10DF30001260001229D4F08900B3C889F0B90868CA
:10DF4000009002F03BFFB0F5C67F08BF0D200BD05C
:10DF5000A0F54070563808BF1C2005D0A0F5007011
:10DF60009F3814BF00203220411C0098281A00025C
:10DF7000C21700EB12600012884206DB0BEB440074
:10DF80008AF800404478202CC6D19AF8000089F81D
:10DF90000000202C1CBF254800EB871A40D000BF92
:10DFA000C4EBC40008EB80077068BD6807F1080186
:10DFB000281A0002C21700EB1260001222D4C8898E
:10DFC00070B3F08960BBD6F800B002F0F7FEB0F590
:10DFD000C67F08BF0D200BD0A0F54070563808BF93
:10DFE0001C2005D0A0F500709F3814BF00203220FF
:10DFF000411CA5EB0B000002C21700EB12600012DF
:10E0000088420DDA89F80040387E317C884202D897
:10E010000020BDE8F88F0AEB44004478202CBFD1E3
:10E020000120BDE8F88F00003C140020BC13002044
:10E030002DE9F74F98B015468B4602F059FA044681
:10E0400002F0EEFC0646BBF1010F18BFBBF1020F58
:10E0500005D040F692114FF0700003F059F8FF49D7
:10E0600001200860FE498968086000208DF856008C
:10E070000E90401E0F90FB49C5EBC50001EB8001DF
:10E08000D1E9020CD1E90423CDE9100CCDE912232A
:10E090008969149110F087FA0146BDF84E809DF809
:10E0A0004C00F14B4044421C881899424FD8EF4D28
:10E0B000AA4253DC69428A4258DB591C8142DCBFC8
:10E0C00000F5F700A0F1F85005DD0028BCBFA0F571
:10E0D000F70000F1F8500C90E548B8F1000F808B84
:10E0E000ADF8540004BF00200B900BD001200B9022
:10E0F000DF4890F82A0028B902F092FF002808BFF4
:10E10000012700D0002702F059FEB0F5C67F08BFF6
:10E110000D200BD0A0F54070563808BF1C2005D04C
:10E12000A0F500709F3814BF002032204FF0000986
:10E13000CA460990464537D90C99DFF82C936FEA07
:10E14000060C6B4616AA01EB0C00494504D940F2B7
:10E150009E51702002F0DCFFAC4504DD40F29F517F
:10E16000702002F0D5FFC3498C4504DA4FF4B46146
:10E17000702002F0CDFFC0498142DCBF00F5F700FE
:10E18000A0F1F85005DD0028BCBFA0F5F70000F1B4
:10E19000F850194601F01AFF0098109920F07F40BE
:10E1A0000090081A20F07F49002F18BFDDF824A046
:10E1B00005D19DF85400002818BF4FF0020AB4F1B1
:10E1C000807F08D01098001B0002C11700EB11607F
:10E1D0000012012802DA0320189D0DE057B1A4486F
:10E1E00090F82B0030B19DF8540010F1000A18BFD0
:10E1F0004FF0020A2546002082441098A0EB090047
:10E2000020F07F42501E20F07F40411B0902CB17B7
:10E2100001EB13610912514504DBB9F1000F18BF7E
:10E2200010922DE0B9F1000F05D09DF8550020B9EE
:10E2300002F0ECFB08B1AFB90CE02FB99DF8540027
:10E24000002818BFAAF1020A4FF000098DF8549077
:10E250004E4607E09DF8540020B100208DF8540090
:10E26000AAF1020A1098A0EB0900401E20F07F409E
:10E27000411B0902CA1701EB1261091251457CDBEF
:10E280000A9705464FF000090B9F02F009F8281A7B
:10E290000002C11700EB11604FEA202A02F08EFD48
:10E2A000B0F5C67F08BF0D200BD0A0F540705638E2
:10E2B00008BF1C2005D0A0F500709F3814BF0020B7
:10E2C00032200B30824520DABBF1010F02D00A98D0
:10E2D00040B112E0B4F1807F1CD140F613117020E0
:10E2E00002F016FFB4F1807F07D0601B0002C11757
:10E2F00000EB11600012042804DD2C46204601F0DA
:10E30000F5FF07E0002864DC04E02C46204601F01D
:10E31000EDFFB946B4F1807F56D01098119A001BDA
:10E32000121B20F07F4022F07F42012851D3B0F52C
:10E33000000F98BFB2F5000F4BD8204610F033F90C
:10E340000C994A4A0D1A4FF0000AAA1A7AF10002F3
:10E3500018D3464B421AD31A7AF1000312D3424B18
:10E36000AB423EBFC0F5902000F1F450451809D3F0
:10E37000934232D2C1F5902100E02AE001F1F4513C
:10E38000084445423A4FB87F60B300BFBBF1010F6C
:10E3900005D0022002F0E6F9012002F0E3F9B045D1
:10E3A0002CD2A5EB06014FF0020002F025F990B344
:10E3B000B8F1000F1CBFA5EB0801012034D000BF4D
:10E3C00002F01AF938B32FE040F62621702002F04F
:10E3D0009FFE1BB00020BDE8F08F40F6FA217020B0
:10E3E00002F096FEB04534BF304640461E30A8428B
:10E3F000CCDB40F63A21702002F08AFE0CD9A5EB66
:10E400000801012002F0F8F828B1002E1CBFA91B5A
:10E41000022009D0D4E741E056EA080004D040F6D3
:10E420007611702002F074FE2946002002F0E4F814
:10E43000A0B30B980126002804BF97F82B000028F2
:10E4400002D0B9F1000F34D097F82A0018B102F0C9
:10E45000BBFC87F82AA0B9F1000F0FE008050040C7
:10E460003C0000203C100020FF7F841E0040420F33
:10E470003C14002000C0BDF00080841E1CD0099810
:10E48000201A20F07F41052002F0B6F860B397F81B
:10E490002B00002808BF87F82B6015E0FFE702205B
:10E4A00002F060F9012002F05DF91BB00020BDE828
:10E4B000F08F97F82A0090B197F82B0020B1052033
:10E4C00002F050F987F82BA0A5EB0800A0F1190184
:10E4D00000290EDC40F66321702002F019FE02F0E4
:10E4E0008FFC87F82A60B6E74FF43E71702002F087
:10E4F0000FFE032002F080F8C0B10F488068C0F81A
:10E5000000A00E48C0F800A00EAC94E80F003860E0
:10E510007960BA60FB6012AC94E80F0038617961F1
:10E52000BA61FB611BB00120BDE8F08F40F66B21A2
:10E53000702002F0EDFD00003C00002008050040C6
:10E540002DE9FF4F14460D464FF0000A0A89514647
:10E5500062F31F41AA7AD14662F30709EA7A0646B6
:10E5600062F30F292A7883B04068C4F800A062F3F0
:10E570001749C4F804A0C4F81090C4E902019D4FE3
:10E580007068A0FB0789306810F00DF810EB0801E7
:10E590004AEB090228784FEA6709C9F1000B70B10C
:10E5A000E08994F81180C043D5F804A004F10C026E
:10E5B00048457CDD40F29F51702002F0A9FDDFF854
:10E5C00038C2D5E9040311EB0C0A42F1000CB0EBA0
:10E5D0000A0A73EB0C0C72D2411A73EB02016ED370
:10E5E000B0EB0806B7422BD8E089A6F1F458A8F59D
:10E5F0009028C143814A08EB010042452BD349458D
:10E60000D8DC594566DB8742DCBF00F5F700A0F196
:10E61000F85005DD0028BCBFA0F5F70000F1F85068
:10E620006A4601A901F0D2FCE0899DF80010301A79
:10E63000401A401EB84202D3A068401CA060464663
:10E64000E0896E4BC1436D6894F81180701804F135
:10E650000C029E4204D940F29E51702002F058FDF7
:10E660004945A7DC594535DB8742DCBF00F5F7009B
:10E67000A0F1F85005DD0028BCBFA0F5F70000F1BF
:10E68000F850214601F0A2FC206820F07F4170196B
:10E69000401C2160B8F1000F08BF7A3004D0B8F1F7
:10E6A000010F08BF48303AD101F074FC01E00EE0E0
:10E6B00005E020F07F40606007B0BDE8F08F306873
:10E6C000401E20F07F40206000F57A70F3E701469D
:10E6D000584504DA4FF4B461702002F019FD874206
:10E6E000DCBFA1F1F450A0F5902005DD0028BCBFEF
:10E6F00001F1F45000F59020214601F067FC2068FC
:10E70000B8F1000F20F07F410AF10100216008BF3D
:10E710007A3009D0B8F1010F08BF483004D040F278
:10E720003961702002F0F4FC01F034FC20F07F41EC
:10E730006160B4F80E9001AA69464846376801F056
:10E7400045FC02F06DF901F025FC80462C4890F85C
:10E750002D1020292AD0C068401D20F07F4000BF26
:10E76000D4E90021891A014421F07F41C4E9000164
:10E770003168814202D9A068401CA06032682869D3
:10E780002146069BFFF7FAF900281CBF07B0BDE839
:10E79000F08FD4E90010401A3168216031680844D4
:10E7A00020F07F40606007B0BDE8F08F0937B9F115
:10E7B000000F16D002F034FC98B902F0FFFAB0F561
:10E7C000C67F08BF0D200BD0A0F54070563808BF9B
:10E7D0001C2005D0A0F500709F3814BF0020322007
:10E7E00007440098804584BFA8EB0000074427F049
:10E7F0007F40B5E70080841E0040420FFF7F841EEB
:10E800003C14002070B51E4D95F82D00202818BF2F
:10E8100070BD95F82C2002EB4200284490F820406F
:10E82000202C27D0174B03EB821101EB44014978D0
:10E8300080F82010FF2085F8290085F82D4021461A
:10E84000022000F091F8002085F82800A8770E49F2
:10E85000C4EBC40001EB8000007E002808BF02F07A
:10E8600073FE002009494968002908BF70BDBDE852
:10E870007040084740F23231702002F049FC00003D
:10E880003C140020BC1300203C1000203C00002061
:10E890002DE9F05FDFF8C08098F82C5005EB4500BB
:10E8A000404490F82140202C08BFBDE8F09FDFF8DD
:10E8B000ACB0DFF8ACA0AAF560790AEB85170726A3
:10E8C00017F8140001280ED0042808BF02260AD029
:10E8D00005280CBF0326062805D040F6DD014FF0C1
:10E8E000700002F015FCBBF1000F18BFAFF3008001
:10E8F000EFF3108072B607EB44014A7805EB45014F
:10E90000414481F8212091F82220A24204BF202214
:10E9100081F82220C0B12A462146012000F024F8C7
:10E92000C4EBC40109EB810059F82120406831464D
:10E93000904798F82C5005EB4500404490F8214052
:10E94000202CBAD1BDE8F09F0648002818BFAFF3CD
:10E95000008062B6DFE700003C14002000000000E9
:10E96000BC13002000000000DFF858C010B50023E1
:10E970000CEB821C07281FD2DFE800F00505050517
:10E980000404040001230CF81100002B08BF10BD83
:10E9900002EB42020C48024492F8220020280EBFEB
:10E9A00082F821100CEB4000417020200CEB410359
:10E9B000587082F8221010BD40F26E21702002F0D3
:10E9C000A7FB0000BC1300203C1400202DE9F05FE1
:10E9D0000F468046DFF858A101EB47005044B8F1DC
:10E9E000010F90F82040254618BFB8F1020F05D05E
:10E9F00040F6A1214FF0700002F08AFB4FF0000BAF
:10EA0000202D42D09AF81E000026002808BF0226BA
:10EA100001F046FCDFF81CC1C4EBC4010CEB810122
:10EA20008A68C968121A091A22F07F4221F07F41D0
:10EA3000964299BFB2F5000FB1F5000F3E4A02EBC6
:10EA4000871920D9224609EB42014C78202C12D09C
:10EA5000C4EBC4010CEB81018B68C9681B1A091A4D
:10EA600023F07F4321F07F419E429CBFB3F5000F0E
:10EA7000B1F5000FE6D8202A05D03B46202104201E
:10EA8000FFF740F80446AC4216D12C48002818BFC6
:10EA9000AFF3008001F004FC03469AF82E00202812
:10EAA0000DD0DAF80800991C081A0002C11700EB13
:10EAB00011600012002802DD0020BDE8F09F202D2B
:10EAC00014D02A4641461846FFF7B2FA00281EBF66
:10EAD0008AF82E500220BDE8F09F3B462A462021AE
:10EAE0000420FFF70FF80020BDE8F09F9AF82A00F5
:10EAF00018B102F069F98AF82AB09AF82B0020B10F
:10EB0000052001F02FFE8AF82BB0042001F02AFE28
:10EB100001F098FE20208AF82E0009488068C0F88D
:10EB200000B00848C0F800B00120BDE8F09F000028
:10EB30003C1400203C100020BC130020000000000A
:10EB40003C00002008050040064910B591F82D2032
:10EB5000202A1CBF887710BD40F29A31702002F045
:10EB6000D7FA00003C1400202DE9F04F694E07460B
:10EB70008DB096F82D008846202855D096F82D00A7
:10EB800006F10804C0EBC000A6F5806909EB800A15
:10EB900020208DF8200096F82C000AAA00EB4000F7
:10EBA000304409A990F82050F06802903068384449
:10EBB00001F00CFADAF80C000999652F084438D3F3
:10EBC000554A0021D21B71EB010232D32268821A0E
:10EBD00022F07F42B2F5000F2BD820F07F4060601A
:10EBE000304684F8108090F82C000DF1200A202D7A
:10EBF0001CBF4A4901EB801B50D000BFC5EBC500CC
:10EC000009EB80086168D8F8086008F10800711AFB
:10EC10000902CA1701EB126109122DD4C08900281C
:10EC20003CD0E08948B139E040F66831702002F00C
:10EC30006FFA0DB00120BDE8F08F20680C9002F053
:10EC4000BDF8B0F5C67F08BF0D200BD0A0F5407011
:10EC5000563808BF1C2005D0A0F500709F3814BF9F
:10EC600000203220411C0C98301A0002C21700EB21
:10EC700012600012884211DA8AF8005098F81810D1
:10EC8000207C814205D8029860600DB00220BDE86A
:10EC9000F08F0BEB45004578202DAFD1052001F01A
:10ECA00061FD1C4C4FF0FF30606094F82C309DF8F3
:10ECB00020202021202A03D00520FEF723FF04E096
:10ECC00003EB4300204490F8200094F82C201349D3
:10ECD00001EB821194F82D2001EB4201487020686D
:10ECE00038442060FF2084F82900607E012805D187
:10ECF000E068401E20F07F4001F098FB9DF8200066
:10ED0000202803D00648407802F0D6FA0DB0002043
:10ED1000BDE8F08F3C1400200040420FBC130020DF
:10ED20003C000020064810B590F82D1020291CBF8B
:10ED3000007E10BD40F66231702002F0E9F900005B
:10ED40003C14002070B5C0EBC001094800EB810401
:10ED500008492069A0FB0156A0680FF024FCE18A55
:10ED6000227D401C11440844401946F1000170BD49
:10ED70003C1000200080841EF8B56B4D6B4A05F5F1
:10ED80008064012694F82A1008287CD2DFE800F07D
:10ED9000047097A9C741AEB319B902F031F884F8ED
:10EDA0002A60E08A10B102F03BF980B1FFF72AFD3A
:10EDB000FF2084F827006168B1F1FF3F03D00520F0
:10EDC00001F01AFC40B1607E012810D109E040F644
:10EDD0006901702002F09CF940F66E01702002F08B
:10EDE00097F9E068401E20F07F4001F01FFB94F887
:10EDF0002D0094F82D10C0EBC00005EB800040689A
:10EE0000C1EBC10155F8212001B00121BDE8F0405E
:10EE1000104794F82B0040B119B901F0F1FF84F8C4
:10EE20002A60002084F82B00F8BDFFF7EBFC4FF0C0
:10EE3000FF30606094F827008DF800009DF8000016
:10EE400088B194F82D0094F82D10C0EBC00005EBAC
:10EE500080004068C1EBC10155F8212001B00621B6
:10EE6000BDE8F040104740F68501702002F050F9EF
:10EE7000FFF7C8FC84F8266002F0D2F820B194F8BD
:10EE80002A0030B109E04AE040F69301702002F018
:10EE90003FF901F0B5FF84F82A6094F82D0094F84A
:10EEA0002D10C0EBC00005EB80004068C1EBC10134
:10EEB00055F8212001B00021BDE8F040104701F0D5
:10EEC00091FDE08A10B102F0ABF828B101F09EFD8F
:10EED000002818BF6677F8BD40F69D01702002F04B
:10EEE00017F91348066090680660F8BD1078BDE811
:10EEF000F84002F0E1B9FFF785FC94F82D0094F892
:10EF00002D10C0EBC00005EB80004068C1EBC101D3
:10EF100055F8212001B00521BDE8F04010474FF41D
:10EF20000B61702002F0F4F83C1000203C0000203F
:10EF3000080500402DE9F34F8246EF4895B0006880
:10EF4000EE4DC005C00D0ED0103840B20028B8BF3D
:10EF500000F00F0000F1E020ACBF90F8000490F842
:10EF6000140D40090DD016984FF0000B00780028C2
:10EF700018BF012818D040F23B714FF0700002F02A
:10EF8000C7F895F82D004FF0010B202807D01698F0
:10EF9000007848B140F23771702002F0B9F840F2C1
:10EFA0003471702002F0B4F8D54C24B1002140F245
:10EFB0003E70AFF300800020CDE91000D149CAEBCC
:10EFC000CA0001EB80004FF00109009024B100213C
:10EFD00040F24970AFF30080B9F1000F0AD000BFD2
:10EFE00095F82C604FF0000885F82980BBF1000FE0
:10EFF00007D038E0C448002818BFAFF3008062B6DD
:10F00000EEE73746012020EA0706C048402200EB21
:10F01000871100EB86100FF022FC24B1002140F292
:10F020005E50AFF3008007EB470106EB4600294432
:10F0300028440A8C028491F8221080F8221024B10E
:10F04000002140F26250AFF3008024B1002140F271
:10F050005370AFF3008095F829008DF808009DF8F3
:10F0600008000028B2D124B1002140F25D70AFF356
:10F07000008002A801F01AF9DDE90201CDE90E01D4
:10F08000334609AA0EA81699FFF75AFA24B10021AF
:10F0900040F26470AFF300809C4A0E9902EB861731
:10F0A00009A817F81A20012A18BF022A38D1099A8C
:10F0B0000A9BA2EB010222F07F42A3EB0101CDF8F3
:10F0C000448021F07F41022A64D3B2F5000F98BF3B
:10F0D000B1F5000F5ED84FF0010814AB13AA31460A
:10F0E000FEF704FF00285DD09DF84C109DF85020DD
:10F0F00033468A425AD00520FEF704FD07EB4A0149
:10F1000048709DF84C0020281CBF07EB400080F899
:10F1100001A057D0324651465FF00300FFF724FCB0
:10F1200024B1002140F26970AFF3008078480028D4
:10F1300018BFAFF30080EFF3108972B624B100213D
:10F1400040F26F70AFF3008095F829008DF8080049
:10F150009DF8080000287FF439AF24B1002140F267
:10F160007770AFF3008009AF009897E80E1000F1B8
:10F170000807B8F1000F87E80E100D99816151D092
:10F1800024B1002140F28470AFF30080BBF1000F86
:10F1900039D11FE0324651460420FFF7E5FB4FF01E
:10F1A0000108BDE7324651460420B7E7202919BFC0
:10F1B00007EB4100407806EB4600284408BF90F872
:10F1C00020009BE706EB4601294481F820A0CDF8FA
:10F1D00044809FE7119810F0FF0F14D095F82D0090
:10F1E000202810D124B1002140F28970AFF30080B3
:10F1F00031460220FFF7EAFB109020B916980078FC
:10F20000E8B101282AD024B1002140F2A670AFF362
:10F210000080FF20BBF1000F18BF85F8290026D021
:10F220004FF0010824B1002140F2B770AFF3008025
:10F230001098384E022823D0012829D02DE024B17F
:10F24000002140F29170AFF3008095F82C205146D8
:10F250000420FFF789FB4FF00108E3E7002C3FF49F
:10F26000B5AE002140F29C70AFF30080AEE695F899
:10F270002C200121914385F82C1085F82900CFE737
:10F28000A8680E99401A0FF08EF9716821B904E050
:10F2900071684FF0FF3001B18847B9F1000F24D0F9
:10F2A00024B1002140F2C770AFF30080B8F1000F25
:10F2B00011D095F82C0000EB4000284490F8210074
:10F2C000202808D024B1002140F2CE70AFF3008096
:10F2D000707801F0F1FF24B1002140F2D370AFF358
:10F2E000008017B04046BDE8F08F0748002818BFDF
:10F2F000AFF3008062B6D3E704ED00E03C140020D9
:10F30000000000003C10002000000000BC130020A2
:10F31000000000003C0000202DE9F04F0646007878
:10F320008DB018B10DB00020BDE8F08F8C4800689A
:10F33000C005C00D0ED0103840B20028B8BF00F094
:10F340000F0000F1E020ACBF90F8000490F8140D1D
:10F350004009E7D0834D844C4FF0010B002725B1C5
:10F36000002140F2E550AFF3008094F82CA084F81F
:10F3700029704FF0000925B1002140F2EA50AFF3A7
:10F3800000807A482BEA0A0800EB8A1100EB88100B
:10F3900040220FF064FA25B1002140F25E50AFF335
:10F3A00000800AEB4A0108EB4800214420440A8C03
:10F3B000028491F8221080F8221025B1002140F239
:10F3C0006250AFF3008025B1002140F2EF50AFF35F
:10F3D000008008A800F06AFFDDE90801CDE90A0114
:10F3E00043466A4631460AA8FFF7AAF825B100212C
:10F3F00040F2F550AFF3008094F82D0020281AD089
:10F40000E0680099091A0902CA1701EB1261091292
:10F4100011D50099814202D90299491C0291DDE976
:10F420000021891A20F07F42084420F07F40CDE976
:10F4300000204FF0010925B1002140F2FF50AFF349
:10F44000008000990A98019A091A101A21F07F4148
:10F4500020F07F40B1F5000F98BFB0F5000F09D83C
:10F460004346694642480A9AFEF788FB59EA00007B
:10F4700029D142E00B98BDF80EA0029009AA07A975
:10F480005046DDF8288000F0A1FD01F0C9FA00F037
:10F4900081FD814694F82D0020283BD0E068401D76
:10F4A00020F07F400099814202D90299491C0291C3
:10F4B000DDE90021891A0090084420F07F40019086
:10F4C0001F208DF80C0000980FF06DF8411CBDF85E
:10F4D0000E009DF80C2010440844C6E9040725B12D
:10F4E000002140F21A60AFF30080D6E90410214AEF
:10F4F000029BE3FB0210C6E9041094F829008DF882
:10F5000014009DF8140000287FF429AF0DB00120ED
:10F51000BDE8F08F08F10908BAF1000F16D001F02C
:10F520007FFD98B901F04AFCB0F5C67F08BF0D20F9
:10F530000BD0A0F54070563808BF1C2005D0A0F5B0
:10F5400000709F3814BF38463220804407988145A8
:10F5500084BFA9EB0000804428F07F40A2E70000B0
:10F5600004ED00E0000000003C140020BC1300206B
:10F570000040420F0080841E2DE9F14F924D8CB067
:10F5800095F82C0000200890069001208F4CA5F1E2
:10F5900080094FF000080746079024B1002140F28F
:10F5A000E470AFF30080079800283CD085F82980EC
:10F5B00024B1002140F2E970AFF3008095F82CA04F
:10F5C000402227EA0A0609EB861009EB8A118346D6
:10F5D0000FF045F924B1002140F25E50AFF30080F6
:10F5E00006EB46000AEB4A012844294400900A8CA5
:10F5F000028491F8221080F8221024B1002140F2F8
:10F600006250AFF3008095F829008DF808009DF84E
:10F61000080078B1002C1CBF002140F2EF70BCD074
:10F62000AFF30080B9E76A48002818BFAFF3008045
:10F6300062B6BBE724B1002140F2F370AFF3008063
:10F640000C981BF8100003287ED1009A0C9992F8B0
:10F650002000884214BF4FF0000A4FF0010A02F167
:10F66000200C8346202209EB861303E0024603EBBD
:10F6700042004078884202D020280AD0F6E72028AD
:10F6800007D0834507D103EB4B0040788CF800008E
:10F6900007E040460CE003EB400003EB42014078FA
:10F6A000487024B1002140F2C940AFF300803846D1
:10F6B000C34610EA0A0F18BFBB4600284ED024B13B
:10F6C00000214FF4FF60AFF30080324601200C9917
:10F6D000FFF74AF924B1002140F60100AFF30080A2
:10F6E0003C48002818BFAFF30080EFF3108072B6DB
:10F6F000079024B1002140F60600AFF3008095F892
:10F7000029008DF808009DF8080038B1002C1CBFB6
:10F71000002140F60A003FF440AF81E7BBF1000F43
:10F7200009D095F82D00202805D131460220FFF799
:10F730004DF90690F8B124B1002140F61E00AFF358
:10F74000008095F82C0000E008E027EA000085F82A
:10F750002C00FF2085F829000120089024B1002109
:10F7600040F62700AFF3008006981B4E022809D010
:10F77000012810D014E09CB1002140F61900AFF32D
:10F780000080ECE700F08CFDA968081A0EF00BFF72
:10F79000716821B904E071684FF0FF3001B188470A
:10F7A000079848B124B1002140F63C00AFF3008037
:10F7B00008980DB0BDE8F08F0548002818BFAFF3DA
:10F7C000008062B6EEE700003C140020000000005C
:10F7D00000000000000000003C000020202824BFA2
:10F7E00000207047C0EBC000034B43F8201003EB30
:10F7F00080004260012070473C10002010B5202896
:10F8000011D20E4991F82C30A1F1800202EB831C39
:10F810001CF810303BB191F82C3002EB831212F837
:10F820001020012A01D0002010BD91F82C200146A3
:10F830000020FFF799F8012010BD00003C140020C3
:10F840002DE9F84F864E804696F82C00A6F18007E9
:10F8500007EB801010F81800002871D096F82C9053
:10F86000804D25B1002140F6AE30AFF3008007EBAC
:10F87000891414F81800012818D0C0B204281CBF3D
:10F880000528062861D02DB14FF0000140F6BA30AE
:10F89000AFF3008001F076FD25B1002140F6BE30C7
:10F8A000AFF3008014F818000128E6D1012425B137
:10F8B000002140F6C530AFF30080002C4BD0002073
:10F8C00086F8290025B1002140F6CA30AFF3008048
:10F8D00096F82CB0012020EA0B0907EB8B1107EBFF
:10F8E000891040220EF0BBFF25B1002140F25E508E
:10F8F000AFF3008009EB490000EB060A0BEB4B006D
:10F900003044018CAAF8201090F822008AF82200D6
:10F9100025B1002140F26250AFF3008096F8290033
:10F920008DF800009DF80000E0B1002D1CBF002103
:10F930004FF43D60BBD000BFAFF30080B7E7FFE7F7
:10F9400040F6A531702001F0E3FB4A464146012014
:10F95000FFF70AF8A0E74448002818BFAFF300807B
:10F9600062B6ACE725B1002140F6D430AFF3008099
:10F970009AF821300AF1210140461C464FF0200B35
:10F9800007EB89120AF1220A04E0A34602EB4B0CB2
:10F990009CF80140844202D0202C2BD0F5E7202C8B
:10F9A00028D0A34204D102EB43004078087005E060
:10F9B00002EB440002EB4B0140784870BAF1000FB3
:10F9C00011D025B1002140F2C140AFF300809AF878
:10F9D0000000A04207D125B1002140F2C440AFF39E
:10F9E00000808AF800B05DB1002140F2C940AFF359
:10F9F000008000E025B1002140F6D830AFF3008050
:10FA00001A48002818BFAFF30080EFF3108472B6D5
:10FA100096F829008DF800009DF8000038B1002DFF
:10FA20001CBF002140F6DE303FF441AF84E786F88A
:10FA30002C90FF2086F8290054B1002D08BFBDE8A6
:10FA4000F88F002140F6EB30AFF30080BDE8F88F6F
:10FA50000548002818BFAFF3008062B6EDE700004C
:10FA60003C14002000000000000000000000000026
:10FA700070B50D46064601F0C1FA0F4890F82C20EB
:10FA80000024803800EB821010F8141029B1611C9A
:10FA9000CCB2202CF8D3202070BD0848C4EBC401A0
:10FAA00040F8216000EB8100214645600120FEF70F
:10FAB0005BFF204670BD00003C1400203C1000207D
:10FAC0002DE9F04F83B000F0EBFB054600F0BAFEE5
:10FAD000844C6068B0F1FF3F1CBF4FF0FF306060A6
:10FAE000A07FDFF8049290B9D4E90210401A20F008
:10FAF0007F404FF40C710EF083FDE1680844281A32
:10FB00000002C11700EB11600012C00F12D0607E1E
:10FB100020B394F827008DF800009DF80000E8B1AC
:10FB200000F0ECFC94F82800F0B140F2F5317020C0
:10FB300001F0EEFA94F82D0094F82D10C0EBC000FF
:10FB400009EB80004068C1EBC10159F82120082170
:10FB5000904740F2DD31702001F0DAFAE81C20F025
:10FB60007F4000F0C3FBDDE7012084F8280094F813
:10FB70002D00202821D094F82D80202084F82D00FD
:10FB800084F82E00002084F8260084F827002060E6
:10FB900000F04CFF207794F82C6006EB4600071924
:10FBA00097F82000202858D0C0EBC00009EB80094E
:10FBB00099F81A00012805D04FE04FF47E717020AB
:10FBC00001F0A6FAB9F816B001AA6946584600F045
:10FBD000FDF900F025FF00F0DDF994F82D00202854
:10FBE00004D0E068401D20F07F401DE005F1090AC7
:10FBF000BBF1000F16D001F013FA98B901F0DEF84E
:10FC0000B0F5C67F08BF0D200BD0A0F54070563868
:10FC100008BF1C2005D0A0F500709F3814BF00203D
:10FC2000322082442AF07F40D9F80820811A090244
:10FC3000CB1701EB1361091200290EDC09F108034F
:10FC4000824202D29968491E9960D3E90021891A3B
:10FC50001860084420F07F40586031460120FEF7CC
:10FC6000B5FE5FEA0009F8D0204800EB861010F8D6
:10FC70001800022804D1324641460620FEF774FEE1
:10FC8000FF2084F8290097F82100194E20281CBF76
:10FC9000707801F011FB207F20B100F0A3FE00205E
:10FCA00020776077B9F1020F11D0B9F1010F1CBFB5
:10FCB00003B0BDE8F08F4FF0FF307168002904BF3A
:10FCC00003B0BDE8F08F03B0BDE8F04F0847A0686F
:10FCD000401B0EF068FC71680029F4D103B0BDE848
:10FCE000F08F00003C1400203C100020BC130020CA
:10FCF0003C00002070B5424C054682B094F82D00BF
:10FD0000202808D06068B0F1FF3F09D040F6D92123
:10FD1000702001F0FDF940F6D821702001F0F8F9CB
:10FD200094F82D003749C0EBC00001EB8006B068A5
:10FD30000EF039FC0246F08A317D334B0844401CFA
:10FD400011189A4217D8314A90421BDCC2F1000CBC
:10FD500060451EDB56008E42DCBF01F5F701A1F1C4
:10FD6000F85105DD0029BCBFA1F5F70101F1F851FB
:10FD70004819994204D940F29E51702001F0C8F907
:10FD8000954204DD40F29F51702001F0C1F96545B4
:10FD900004DA4FF4B461702001F0BAF98642DCBF96
:10FDA00000F5F700A0F1F85005DD0028BCBFA0F574
:10FDB000F70000F1F85001AA694600F007F99DF834
:10FDC00004000F288CBF012000200099084420F077
:10FDD0007F41616094F827008DF800009DF80000D5
:10FDE000002804BF02B070BD052000F005FC00280B
:10FDF0001CBF02B070BD4FF42E61702001F088F975
:10FE00003C1400203C100020FF7F841E0040420F65
:10FE100070B51C4C202184F8201084F8211084F83F
:10FE20002210002084F82C0084F82D10421EC4E912
:10FE30000002A07784F8260084F8270020776077F6
:10FE400084F82E1084F82A0084F82B00A4F1820193
:10FE50001022887001F8040F521EFAD100F0F0FD54
:10FE6000094D012684F82860FF202870074801F01A
:10FE700005FA687001F070FAA86000F06BFD84F874
:10FE80002F6070BD3C1400203C00002091E8000071
:10FE900070B50546012000FA05F40E46002A08BF99
:10FEA00008480CD0002000F03BFDE90001F1804142
:10FEB00001F5F831C1F81005C1F814650248046075
:10FEC00070BD000008F5014004F5014000B583B0A5
:10FED000684600F0EBF900980EF065FB019A034BC1
:10FEE0000021E2FB030103B000BD00000080841E7E
:10FEF00070B5064682B01D4610460EF054FB04460F
:10FF0000684600F0D3F920490198A0FB0102301A9D
:10FF100044BFA0F5F70010F1F85004D54FF440614C
:10FF2000702001F0F5F8884204DB40F601417020B2
:10FF300001F0EEF8154A211A00238A1A73F1000223
:10FF400018D3DFF848C0021BB2EB0C0C73F10003AE
:10FF500010D30F4B8B423EBFC0F5902000F1F45000
:10FF6000011907D393420AD2C4F5902101F1F4514B
:10FF70000844414201F10F0002B0281A70BD40F65A
:10FF8000FA21702001F0C4F80080841E0040420F66
:10FF9000FF7F841E410B48F2376251430A0C094B24
:10FFA000510202FB03020848504300F586306E30D0
:10FFB000400D5B4210FB03F3B2EB532F88BF491C8B
:10FFC00008447047F7C2FFFF6F0C0100430B48F273
:10FFD000376C03FB0CF330B41B0CDFF844C05C023D
:10FFE00003FB0C030F4858434FEA505C04EB0C0032
:10FFF00043F609541CFB04F404F5807C43F60855D1
:020000040001F9
:10000000A3EB5C2C2C440CF0FF0CB3EB542F84BFFF
:100010004FF0000C401C086082F800C030BC7047F4
:10002000F7C2FFFF6F0C01002DE9F0413B4DD5F801
:100030000403DFF8EC8010F4803F4FF400664FF0CB
:10004000E0274FF0000419D036480068B0B1C5F879
:100050004041C7F88062D5F84005D8F80010401A32
:1000600020F07F40022802D3B0F5000F06D94FF4EC
:100070008030C5F808030420FEF77EFED5F804039F
:1000800010F4003F1AD028480068B8B1C5F84441C0
:10009000C7F880622548D0F84005D8F80010401A0B
:1000A00020F07F40022802D3B0F5000F06D94FF4AC
:1000B0000030C5F808030520FEF75EFED5F80403FE
:1000C00010F4802F1AD01A480068B8B1C5F848411A
:1000D000C7F880621748D0F84005D8F80010401AD9
:1000E00020F07F40022802D3B0F5000F06D94FF46C
:1000F0008020C5F808030620FEF73EFED5F804016F
:10010000002808BFBDE8F081C5F80441C7F8806247
:100110000948C168491CC160BDE8F08100B00040D9
:1001200004B5004040B1004044B1004004B000407C
:1001300048B1004008B00040480000202DE9F041DF
:10014000384D2878042868D0A81C0122017859B1BC
:10015000012908BF6A7002D06978002958D00221AD
:100160000170407800F0FEFA2F4CD4F804034FF0F1
:10017000000810F4002F4FF480774FF0E0260AD0EB
:100180002A48006838B1032000F0ECFAC6F8807203
:100190000320FEF7F1FDD4F8040310F4802F0AD0F9
:1001A0002348006838B1022000F0DCFAC6F88072FB
:1001B0000220FEF7E1FDD4F8040310F4003F0AD05A
:1001C0001C48006838B1012000F0CCFAC6F88072F3
:1001D0000120FEF7D1FDD4F8040310F4803F08BFDE
:1001E000BDE8F08114480068002808BFBDE8F08130
:1001F000002000F0B7FAC6F8807204202870C5F815
:100200000480C4F80082BDE8F0410020FEF7B4BDD0
:1002100040F2A3416C2000F07BFFBDE8F0410720D5
:10022000FEF7AABD48000020008000404C8100403D
:100230004881004044810040408100400122110279
:100240004FF0E0230020C3F8801103F5C073BFF323
:100250004F8FBFF36F8FC3F800110E4941F8042F81
:10026000431EC1F80433C1F83C05C1F83C010A4BF8
:10027000C3F84005C1F840011B1DC3F84005C1F893
:1002800044011B1DC3F84005C1F84801CA60034979
:100290004870704700800040048000404800002003
:1002A000014800687047000004B5004030B4EFF327
:1002B000108C72B600250B4B0B4A00BFD3F8041507
:1002C000D3F804412CB1D168491CD160C3F8045162
:1002D000F4E7D268BCF1000F00D162B6C0E90012A9
:1002E00030BC704700B00040480000202DE9F047C6
:1002F000464E0546B71E3378B968012B04BFA942A4
:10030000BDE8F0874FF04040414A1060424A414802
:10031000C2F8080302F1040C4FF00004002B62D075
:100320003E48C2F84803CCF84045C2F8444100BFFB
:10033000D2F848014FF0E0294FF00108002801BF32
:10034000D2F8040100284FF40060C9F880024FF48D
:100350008030C2F80803C2F84803C2F84041304870
:10036000D0F800C0A5EB0C0C2CF07F4CBCF1020FB8
:1003700044D3BCF5000F41D8C2F840554FF4803C3F
:10038000C2F844C32BB102688A1A22F07F42022AC3
:10039000F9D3C7F804803C70FFF750FF2148D0F82C
:1003A000041564F30101C0F80415D0F808250221F2
:1003B00061F30102C0F808250421C0F81015C0F847
:1003C0000C807968C0F800128015C9F88002C9F85D
:1003D00000011549C00508600420BD60707086F8F2
:1003E0000080BDE8F087C2F84803C2F84045C2F873
:1003F0004041CCF84045C2F8444199E70020C2F89A
:10040000400540F297216C2000F082FE4A00002057
:1004100008F50140FDFFFBFF00B00040FDFFFAFFC3
:1004200004B500400080004004F5014070B52A4C3E
:10043000A168814214BF01220022DFF8A0C09CF80D
:100440000050022D02D0002A34D002E0002A08BF5A
:1004500070BD62789AB3224B4FF080421A60214BF4
:100460009213C3F80823C3F848230022C3F840219D
:100470001D4A1668861B26F07F46022E24D3B6F549
:10048000000F21D8C3F840054FF48036C3F8446309
:100490002DB11368CB1A23F07F43022BF9D3134BF2
:1004A00002214A071A60A06004208CF801008CF831
:1004B000001070BD40F2A5216C2000F029FE40F232
:1004C000A9216C2000F024FE0020C3F8400540F272
:1004D000B5216C2000F01CFE480000204A000020DE
:1004E00008F5014000B0004004B5004004F50140AB
:1004F0000148806870470000480000202DE9F04165
:100500003648354AC0F80823DFF8D4C0031D00215F
:100510009CF8004084B1334AC0F84823C3F8401522
:10052000C0F84411D0F848210123002A04BFD0F8B4
:100530000401002811D10AE0C0F84823C0F8401592
:10054000C0F84011C3F84015C0F84411EAE74FF075
:10055000E0224FF40060C2F88002022C04D040F286
:10056000C1216C2000F0D4FD1F4E30681F4CC01C10
:1005700020F07F40A2681E4D90420BD03768D71BF9
:1005800027F07F47042F05D3B7F5000F02D8FFF7F8
:10059000ADFE1BE03068101A20F07F40022813D314
:1005A000B0F5000F10D8134A4FF080401060636020
:1005B00021706B60EB604000111F086004208CF814
:1005C00001008CF8003001E0636021706068C5F8BC
:1005D0000002BDE8F0810000FDFFFBFF00B000401D
:1005E0004A000020FDFFFAFF04B50040480000204B
:1005F0000080004008F501402DE9F041544A0025F3
:10060000012492F800C053784FF4A07607287DD2D9
:10061000DFE800F004040404585858004D4A976875
:10062000B7F1807F04BF5278002A03D0BCF1020FDB
:1006300005D026E040F251316C2000F069FD1A1F10
:10064000D2B206EB820202F1804606F53046002265
:10065000BCF1010F03D0BCF1020F08D00EE0042B57
:1006600024BF3768002F08BF4FF0004206E0042B7C
:1006700024BF3768002F08BF42F0804212F0804F3D
:10068000E5D1DFF8D4C000F1100204FA02F2CCF890
:1006900008234FF0400303EB8003DBB263441C608C
:1006A0000CEB8000D0F84035A1EB030323F07F432F
:1006B000032B26BFC0F84015CCF80423C0F84055E2
:1006C00037D23CE0BCF1000F06D0834204D140F2A7
:1006D00071316C2000F01CFD021FD3B2032B04D338
:1006E0004FF4E6716C2000F013FDDFF870C003F1E9
:1006F000100204FA02F2CCF80823CCF8482306EBE7
:1007000083034CF80350164B1B6800E01AE0001FEF
:10071000CB1A23F07F43C0B20CEB8000022B0BD32B
:10072000B3F5000F08D8C0F84015CCF80423CCF876
:1007300044230120BDE8F0810021C0F840150020CD
:10074000BDE8F08140F275316C2000F0E1FC000062
:100750004A000020480000200080004000B0004017
:1007600004B500402DE9F843012600274FF4A07896
:10077000072851D2DFE800F0040404041919190015
:1007800000F1100106FA01F22649C1F8082301EB35
:1007900080030022C3F8402508EB80028F502249D5
:1007A00051F820000090BDE8F883204D011FCCB225
:1007B000297879B16A7882420CD11D4A4FF04040C5
:1007C0001060012908BFFFF739FD2F7019494FF05C
:1007D00080708860184904F1100006FA00F0C1F832
:1007E0000803C1F84803A0000844D0F84005134AA4
:1007F0001268801A20F07F40022807D301EB8402A0
:100800000020C2F8400508EB84000F500C4850F857
:1008100024000090BDE8F88340F2F9316C2000F02C
:1008200077FC000000800040408100404A0000202A
:1008300008F501404800002000B0004004B5004029
:1008400040B100402548244AC0F808232449031D2C
:1008500091F800C00021BCF1000F10D0214AC0F86F
:100860004823C3F84015C0F8441100BFD0F8482110
:10087000002A04BFD0F80401002811D10AE0C0F812
:100880004823C0F84015C0F84011C3F84015C0F81F
:100890004411EBE74FF0E0224FF40060C2F8800211
:1008A00011484FF0FF32C0F80823C0F84015C0F8D7
:1008B000401100F10402C2F84015C0F8441102F1E1
:1008C0000402C2F84015C0F8481102F10402C2F84F
:1008D0004015C0F84C117047FDFFFBFF00B0004011
:1008E0004A000020FDFFFAFF0080004010B50728F5
:1008F0000DD2DFE800F004040404060606000649F1
:1009000002E0001F0549C0B201EB800010BD40F2BB
:1009100099316C2000F0FCFB4081004040B1004068
:1009200010B507280DD2DFE800F004040404060621
:100930000600064902E0001F0549C0B201EB800035
:1009400010BD40F299316C2000F0E2FB4081004084
:1009500040B1004070B51F48002404210470801E7F
:1009600001708905C4608160FFF768FC01254FF0C4
:10097000E02CEB02CCF88031BFF34F8FBFF36F8FC9
:10098000CCF8803214484560856014490A68002A12
:10099000FCD1511EC0F80813C0F84813C0F84045F8
:1009A000C0F840410E49C1F84045C0F84441091D16
:1009B000C1F84045C0F84841C0F80441CCF80031C6
:1009C00005604FF48271C0F844130221C0F804138B
:1009D00070BD00004A00002000B0004004B5004097
:1009E00004B00040084890F900000028B8BF7047E4
:1009F00000F01F01012202FA01F14009800000F11C
:100A0000E020C0F800127047D003002003480078AF
:100A100003280CBF0120002070470000BC03002009
:100A20000148408870470000BC030020034800785C
:100A3000022816BF0328012000207047BC030020B5
:100A4000024800210170418070470000BC03002073
:100A50002DE9F041164C607A002827D04FF48071C0
:100A60008D0528460DF0F0FD80464FF48271284632
:100A70000DF0EAFD00260746B8F1000F09D001206D
:100A8000C5F80803207920B12671E06908B18047D4
:100A9000E66137B1C5F804610220C5F8080300F02B
:100AA0006BFA4046BDE8F04100F058B8BDE8F0816F
:100AB0005800002010B50DF071FE30B90DF08FFE1A
:100AC00018B90DF0C2FE002802D0024902200860C9
:100AD00010BD0000340C004070B500F091F900F03A
:100AE0009FFA094C4FF0804530B1FFF7E3FF01203A
:100AF00028610420A07204E00320A0720120C5F840
:100B000004030020E07170BD5800002070B5124C45
:100B1000A079E0B1E179401E814218DA00F080FA54
:100B2000054600F069FBA179012902D9E179491C48
:100B3000E1710DB1616900E02169411A022902DA0F
:100B400011F1020F07DC0DB1606100E02061BDE82A
:100B50007040FFF7C1BF70BD580000202DE9F0477D
:100B600006464FF080454FF4867128460DF06CFD27
:100B700080464FF4887128460DF066FD274C82466A
:100B8000277804F108000DF0D3FD10B140F2B9113F
:100B900016E04FF0010946B1A07A032805D10420E0
:100BA000A072FFF787FFC5F810900026B8F1000F7C
:100BB00018D0C5F80C61A07A042804D040F2CB11FB
:100BC0006D2000F0A5FA0DF0E9FD28B90DF007FE43
:100BD00010B90DF03AFE08B1114806600220A0726B
:100BE00000F0F2F8BAF1000F08D0C5F81061A07A51
:100BF000022801D1FFF78AFFC5F814903FB1267093
:100C0000A07A022801D1FFF767FF00F0DDF8BDE808
:100C1000F047024808300DF0A2BD00005800002047
:100C2000340C00402DE9F0475F4C00270646A761D1
:100C3000427881780078E0726271A171E7714FF0BB
:100C400001084FF08045052825D2DFE800F01003A9
:100C500006202200C4F8188009E000F0D1F8012134
:100C600028460DF0F6FC0028F9D00220A0610DF016
:100C70001CFDB0B100F0EEF9217E01F003018842C5
:100C80000FD1B07950B10220C5F8040370E0474895
:100C9000ECE74748EAE740F23A314DE000F0AEF9C0
:100CA00066E0C5F80C804FF4827AC5F80471A0693B
:100CB000C5F818050DF05EFD40B90DF065FD28B9C9
:100CC0000DF079FD10B90DF08AFD38B14FF080506C
:100CD000D0F844023749C0F3423008600DF04AFDB5
:100CE00040B90DF051FD28B90DF065FD10B90DF0BA
:100CF00076FD18B12F491031C1F80080C5F8088081
:100D00000220C5F80403B07990BBD5F8040310F0B5
:100D1000020F0FD0DFF8A090D9F80010C94341F3BB
:100D2000001101F10108D9F8001041F01001C9F8D3
:100D3000001007E040F2FB216D2000F0E9F900BF50
:100D400000F020FB514628460DF07EFC0028F7D02D
:100D500000F054F9B8F1000F05D1D9F8001021F0D6
:100D60001001C9F800100220C5F80803C5F8047185
:100D7000A07970B1307860B900F052F9064600F001
:100D80003BFA6FF0004116B1C4E9041001E0C4E978
:100D90000401012128460DF05CFC08B100F03AF98D
:100DA000A772BDE8F0870000580000200100020093
:100DB000010003003C05004010ED00E00148C0893F
:100DC000704700005800002010B5EFF3108472B691
:100DD0000A48417829B14178491E4170417829B1CA
:100DE00008E04FF48E716D2000F092F9807808B918
:100DF00000F024F9002C00D162B610BD580000208C
:100E000010B5EFF3108472B606484178491C417062
:100E10004078012801D10DF033FC002C00D162B6DE
:100E200010BD000058000020054810B5C17821B160
:100E300000210171C170FFF7C7FF002010BD000045
:100E40005800002070B50C4CE17861B90125E570BF
:100E5000E061FFF7D5FF00F0E3F830B1E06910B1D1
:100E600080470020E061002070BD4FF08040257178
:100E7000C0F80453F7E70000580000202DE9F041C6
:100E800005006FF015003FD0297804293CD80029CF
:100E900069783BD0002937D1A978002934D10020C6
:100EA0000DF09DFB00200DF08DFB4FF080484FF0C2
:100EB000FF31C8F808130026C8F80061C8F80461BB
:100EC000C8F80C61C8F81061144C6670A888A0813D
:100ED0000DF0CDFB012708B1E77067700121404696
:100EE0000DF0B7FB08B100F095F840F2F550E08145
:100EF0002846FFF797FE677200200DF063FB4FF066
:100F0000E0213046C1F80071BDE8F0810029FBD036
:100F10002029F9D8A9782129C1D9F5E7580000205E
:100F200001488089704700005800002010B50D4826
:100F30000DF0FEFB0B49083948B1012008704FF055
:100F4000E021C1F80002BDE81040FFF759BF887AE0
:100F5000022801D1FFF7C0FDBDE8104001480DF0A7
:100F6000FEBB0000600000200248807A002800D00C
:100F70000120704758000020F8B51F4DE87A00287E
:100F80000FD1287E00F003000DF07FFB002808D071
:100F9000EFF3108172B6FFF7E7FF18B1002900D117
:100FA00062B6F8BD0126AE7201B962B618204FF0E4
:100FB0008044C4F80803A6614FF42070ADF8000027
:100FC000BDF80000411EADF80010F9D20027C4F8AA
:100FD0000C71C4F81071084808300DF0BCFB2F707C
:100FE000FFF77AFD6661687900F07F00C4F8380584
:100FF0001820C4F80403F8BD5800002010B5044CB4
:10100000207E00F003000DF040FB0028F8D010BD5A
:10101000580000200149012008707047D1030020CA
:101020004FF08040D0F8000118B90348007800283C
:1010300000D0012070470000D10300204FF0804015
:10104000012141600021C0F8001101480170704782
:10105000D10300200248006800F003007047000040
:101060001C04004010B531B1012907D040F2023113
:1010700005A000F021F8D0F8140401E0D0F808042D
:1010800000F0010010BD00006E72665F636C6F635C
:101090006B2E6800BFF34F8F05480168054A01F4C5
:1010A000E06111430160BFF34F8F00BFFDE7000017
:1010B0000CED00E00400FA0572B6034A526802B172
:1010C0009047FFF7E7FF000078000020064810B5C2
:1010D000002101600121016008460DF0FDFABDE824
:1010E000104001200DF0EBBAFC1F0040074810B57E
:1010F00001214160891EC0F808130C200DF0ECFAA4
:10110000BDE810400C200DF0DABA000000C000402D
:101110000EB572B60F4A5568D5B1002203466E4629
:101120000A2403E0B0FBF4F0521CD2B20028F9D13B
:10113000B05409E0B3FBF4F004FB1030B3FBF4F35C
:10114000521ED2B23030B054002AF3D13046A847F4
:10115000FFF7A0FF780000202DE9F041184C06466B
:10116000174660780D4618B14FF0FF30BDE8F081AA
:10117000FCF7A0FB06B9134E67602570FFF7A6FFCA
:10118000FFF7B4FF3046FFF779FE0600EED1FEF719
:101190003FFEFFF7F1FE0DF05EF928460DF08FFAE5
:1011A0000120002D09DB05F01F0100FA01F16A0999
:1011B000920002F1E022C2F8001160703046D5E7DB
:1011C00078000020FAE601000148407870470000EE
:1011D00078000020074890F90000002809DB00F0A3
:1011E0001F02012191404009800000F1E020C0F879
:1011F00000127047780000202DE9F04101264FF0E1
:10120000E02231034FF000084046C2F88011BFF3DE
:101210004F8FBFF36F8F164CC4F800010C200DF0F8
:101220007AFA144D2868C04340F30017286840F04C
:1012300010002860C4F8046326607F1C02E000BF31
:1012400000F0A0F8D4F800010028F9D01FB92868F0
:1012500020F010002860084805686660C4F808633C
:10126000C4F800810C200DF056FA2846BDE8F08144
:1012700000C0004010ED00E008C5004010B5024677
:1012800005200C4904E000BF01EBC0031B7933B11A
:10129000401EC0B2F8D248216920FFF739FF41F85B
:1012A000302001EBC00100224A718A7101220A71CB
:1012B00010BD00006C14002010B5052801D3582182
:1012C00006E00A4901EBC0000179012903D0592148
:1012D0006920FFF71DFF41798279491CC9B28A4212
:1012E00000D04171BDE81040FFF774BF6C140020BE
:1012F00010B5052803D34F216920FFF709FF034AE2
:10130000002102EBC000017110BD00006C14002030
:1013100070B505250E4E0F4C16E0217806EBC10086
:101320000279012A08D1427983799A4204D042791C
:10133000827156F8310080472078401CC0B220707E
:10134000052801D3002020706D1EEDB2E5D270BDDE
:101350006C140020D203002000B50DF00BFA40B948
:101360000DF012FA28B90DF026FA10B90DF037FA7F
:1013700008B1024800BD024800BD00000C05004055
:1013800000E7014010B50DF02AFA30B3EFF31080FA
:10139000C8B1002172B6124802680368C2F3001295
:1013A00043F0100303604FF0E023D3F80042D3F87A
:1013B00004321C4300D040BF20BF00BF00BF00BFAD
:1013C00000BF12B105E00121E4E7026822F010023B
:1013D0000260002900D062B610BD20BF10BD000021
:1013E00010ED00E001490968896808478000002085
:1013F0000149096809690847800000200148006820
:1014000040680047800000200149096809680847D2
:101410008000002027EA01001FEA010013EA010012
:1014200023EA01001BEA010070B50E4C6078002829
:1014300017D120780025012806D1022020702069CC
:1014400010B12069804725612078032809D12570D3
:101450002069002805D0606840698047206980477E
:10146000256170BD8400002010B5084C207802284A
:1014700002D02078032802D160688068804700206D
:10148000A0706070BDE81040FFF7CEBF8400002060
:1014900002480078002800D0012070478400002016
:1014A00038B50446052804D340F23D116820FFF703
:1014B0002FFEFFF7B9FF104D012068702878022831
:1014C00016D16868C168204688470C4901EB440280
:1014D000527882420DD3A87801280AD011F814005E
:1014E0008DF800008DF801406868016868468847FB
:1014F00038BD0120F4E700008400002066180020B9
:1015000005490A78022A04D00A78032A01D000206B
:1015100070474968096908478400002010B558B130
:1015200008490A78022A02D00A78032A09D14968B0
:101530004968BDE81040084740F253116820FFF7A2
:10154000E7FD10BD8400002001490120887070472C
:101550008400002005480178022904D0017803297D
:1015600001D0002070474068806900478400002057
:101570004BEA010083EA01006DEA01005BEA010029
:1015800067EA010055EA010049EA010047EA010063
:101590007FEA010073EA010061EA01004FEA0100FD
:1015A00041EA010039EA01003DEA010033EA0100A5
:1015B0000148006800680047980000200148006862
:1015C0004069004798000020014A1268D26810471D
:1015D0009800002001490968C96A0847980000205E
:1015E000014800680069004798000020014A12681D
:1015F000926810479800002001490968496A084725
:101600009800002001490968896A0847980000206D
:10161000014B1B685B681847980000200148007860
:1016200070470000D30300201FB5144C207A8DF8BA
:101630000100E0798DF80000A079ADF80400607930
:10164000ADF80200684609F0F7FF08B1902110E0FC
:10165000E068029002A80AF005F808B1942108E0B9
:1016600007480068039003A811F0C4F8002803D0CD
:101670009821032000F084F91FBD0000941400207D
:10168000881A0100FEB5054600680C46C01C20F013
:1016900003002860002000900190029008788DF8E7
:1016A000010048788DF8020088788DF80300C8782A
:1016B0008DF8040020798DF80500A07D8DF80600D6
:1016C000E07E8DF80800314F207F8DF80900787991
:1016D000164610B120798DF807000EB1002000E009
:1016E0002868694600F07EFB296808442860A178D4
:1016F00041B1638AE27806B1002000F079FE2968E2
:1017000008442860F87878B1217C69B1387908B14B
:10171000FF2200E025220EB1002000E0286800F042
:10172000EFFE296808442860207968B12868C01C49
:1017300020F003002860227D217906B100200AF004
:101740007FFB296808442860607D60B12868C01C60
:1017500020F003002860617D06B1002000F0F8FE53
:10176000296808442860A07D00280ED02868C01C85
:1017700020F003002860237EE27DA17D06B10020D9
:1017800000F026FF296808442860FEBD9C00002068
:1017900010B528B1142204490DF061F8002010BDE5
:1017A0006FF0150010BD0000AC1A010070B56FF0AD
:1017B0002C0598BB304C607808B1A81170BD19B3E6
:1017C0006FF01500002AF9D02C4B0C294FD2DFE81E
:1017D00001F04E06090C1C1F2C3426373A3F1078B6
:1017E000187039E01078587036E091780029E5D00B
:1017F000D1780029E2D011781B29DFD351781B2939
:10180000DCD31068C3F8050026E01068D86023E038
:101810001178DA789142D1D399701DE027E01178E0
:101820009A789142CAD8D97016E0E17811B111784E
:101830000229C3D3107818740EE0108858820BE088
:101840001078187108E011780229B7D3197503E0F0
:1018500011780829B2D859750122084900200DF0E5
:101860002CF9B0F5803F04DB6FF00B0070BD28460B
:1018700070BD0121A17070BD9C0000209414002057
:1018800010B5074C607820B10AF028FA2078FFF7ED
:101890002FFD00F00DFF00F0E7FF0020607010BD8D
:1018A0009C00002070B50C46050019D0C4B100F0B2
:1018B00023F9C0B12846FFF7E1FC0C4D00220C498A
:1018C000287020460DF0F9F811F032FE002128783A
:1018D0000AF0E6F9FFF7A8FE01206870002070BD4D
:1018E0006FF0150070BD4FF0FF3070BD9C00002000
:1018F0009414002030B589B005000CD0FFF764FCCB
:101900004FF0FF3420B1FFF70BFBB0F5FA7F05D99C
:10191000204609B030BD6FF01500FAE7134C1448AB
:10192000A56000F02DFA00206070A070E0702071BA
:10193000607120220F4968460CF091FF2022694611
:101940000D480CF08CFFEFF3108472B66FF00C00B2
:1019500000F0BCFE094800F093FF18B1AB21032052
:1019600000F00EF804B962B60020D2E79C00002017
:10197000291601008C1A010094140020251B010077
:101980000EB572B6154A9568DDB1002203466E4663
:101990000A2403E0B0FBF4F0521CD2B20028F9D1C3
:1019A000B0540AE0D8B2B0FBF4F7B3FBF4F304FB95
:1019B0001700521ED2B23030B054002AF2D1304655
:1019C000A847BFF34F8F06480168064A01F4E0615B
:1019D00011430160BFF34F8F00BFFDE79C00002063
:1019E0000CED00E00400FA05064810B58178407857
:1019F000014302D04FF0FF3010BD09F069FE002016
:101A000010BD00009C000020064810B58178407889
:101A1000014302D04FF0FF3010BD0AF06DF90020F5
:101A200010BD00009C000020064810B58178407869
:101A3000014302D04FF0FF3010BD11F0FDF800203F
:101A400010BD00009C000020064810B58178407849
:101A5000014302D04FF0FF3010BD0AF05FF90020C3
:101A600010BD00009C000020064810B58178407829
:101A7000014302D04FF0FF3010BD11F01FF90020DC
:101A800010BD00009C0000200100000001010100C9
:101A9000001B1B03020000004C1D000003001F0080
:101AA0000200000100000100000000006D90412ACA
:101AB00038E8AD1729A503383927D7851F85D8E120
:101AC000054A10B5526812B1BDE810401047922186
