:1000000000610020712100001D6D000045210000ED
:1000100045210000452100004521000000000000AE
:100020000000000000000000000000005D1C000057
:100030004521000000000000091C000045210000CF
:100040000D1D00000D1D00000D1D00000D1D000008
:100050000D1D00000D1D00000D1D00000D1D0000F8
:100060000D1D00000D1D00000D1D00000D1D0000E8
:100070000D1D00000D1D00000D1D00000D1D0000D8
:100080000D1D00000D1D00000D1D00000D1D0000C8
:100090000D1D00000D1D00000D1D00000D1D0000B8
:1000A0000D1D00000D1D00000D1D00000D1D0000A8
:1000B0000D1D00000D1D00000D1D00000D1D000098
:1000C0000D1D00000D1D00000D1D00000D1D000088
:0C00D0000D1D00000D1D00000D1D0000A6
:1000DC0053B94AB9002908BF00281CBF4FF0FF31A3
:1000EC004FF0FF3000F00CB8ADF1080C6DE904CE08
:1000FC0000F008F8DDF804E0DDE9022304B07047F5
:10010C00704700BF2DE9F04786468C460846089E8E
:10011C00154674461946002B40F0C2808542B2FA4F
:10012C0082F245D94AB1C2F1200300FA02FC2EFA40
:10013C0003F3954043EA0C0C94404FEA154EA8B2D9
:10014C00BCFBFEF8230C0EFB18CC08FB00F943EAB1
:10015C000C43994528D9EB1808F1FF3704D299457F
:10016C0002D9A8F102072B44A3EB0903A4B2B3FBF9
:10017C00FEFC0EFB1C330CFB00F044EA0344A042D3
:10018C0014D92C190CF1FF3304D2A04202D9ACF1D2
:10019C0002032C44241A43EA07401EB1D440002326
:1001AC0034607360BDE8F0874746DDE76346F1E7EE
:1001BC0092BB431B01214FEA154EAFB2B3FBFEFCC1
:1001CC00200C0EFB1C330CFB07F840EA034398454C
:1001DC0062D9EB180CF1FF3004D2984502D9ACF17E
:1001EC0002002B44A3EB0803A4B2B3FBFEFC0EFBF2
:1001FC001C330CFB07F744EA0344A7424ED92C19D5
:10020C000CF1FF3304D2A74202D9ACF102032C4407
:10021C00E41B43EA0040C0E7C2F1200320FA03F1DB
:10022C00954090402EFA03F303434FEA154EAFB2BC
:10023C00B1FBFEFC0EFB1C10190C0CFB07F841EA81
:10024C000041884504FA02F422D969180CF1FF30F8
:10025C0004D2884502D9ACF102002944A1EB080173
:10026C009BB2B1FBFEFC0EFB1C110CFB07F743EA27
:10027C0001439F420ED9EB180CF1FF3104D29F427F
:10028C0002D9ACF102012B44DB1B41EA004192E79D
:10029C006046E3E76146F7E76046A3E76346B7E7E6
:1002AC00834206D916B9002108467BE7C6E900E06F
:1002BC00F9E7B3FA83F78FB9834201D3724508D8B3
:1002CC00BEEB020460EB030301209C461EB9002127
:1002DC0068E73846FAE7C6E9004CF8E7C7F1200CA6
:1002EC00BB4022FA0CF41C432EFA0CF120FA0CF34E
:1002FC00B84001434FEA14490EFA07F5B3FBF9F87D
:10030C001FFA84FE09FB18300B0C08FB0EFA43EAAB
:10031C0000439A4502FA07F240D9E31808F1FF307E
:10032C0004D29A4502D9A8F102002344A3EB0A0394
:10033C0089B2B3FBF9F809FB183308FB0EFE41EA4E
:10034C0003418E452CD9611808F1FF3304D28E4538
:10035C0002D9A8F10203214443EA0040A0FB029811
:10036C00A1EB0E014145CE46434602D306D14D4585
:10037C0004D2B9EB020E68EB04030138002EA6D0B0
:10038C00B5EB0E0261EB030101FA0CFC22FA07F348
:10039C004CEA0303F940C6E9003198E74046C5E74B
:1003AC004346D9E77FB52B4B2B4AC3F800262B4885
:1003BC00C3F804264921C3F80826C3F80C26C3F851
:1003CC001026C3F81426C3F81826C3F81C2606F00A
:1003DC001BFC00F071F801A800F0D2FC204B1B684C
:1003EC00834204D01F48452106F00EFCFEE7039A19
:1003FC001D48492106F008FC1C48492106F004FC64
:10040C004FF44041002007F052F920B11848452123
:10041C0006F0FAFBFEE769469DF8080000F02CF8A0
:10042C00009B039C1C44019B1D8900F05DFF661919
:10043C004FF02002EFF3118382F31288BFF36F8F1A
:10044C00635983F30888736898470A48452106F076
:10045C00DBFBFEE7000001403546526EEC9A0000D3
:10046C0060030020059B0000289B0000579B0000A8
:10047C007C9B0000AF9B000008B5024638B10548D4
:10048C000023452106F0C0FB6FF0150008BD086085
:10049C00FCE700BFD29B00001FB50C46014601AA29
:1004AC00044806F0F6FF18B9019B2360029B6360B9
:1004BC0004B010BDFC94000002484FF4C05103F08E
:1004CC0043BC00BFD81100202DE9F04FF9B0DDE995
:1004DC008448DFF8E0A138A8DAF8006017461D461A
:1004EC0008F0D1FC002138A803F04CFD3CB1B8F168
:1004FC00000F04DD4246214638A808F0C8FC7B8971
:10050C00B7F808809844FB684FF000099844C84538
:10051C0021D80DA938A808F0F3FC869B23B1202222
:10052C000DA9184606F01CFC002300932A464FF632
:10053C00FF73394607A805F0BEFF044638B92846B4
:10054C000C9F00F0DDF987421BD94FF0FF34204699
:10055C0079B0BDE8F08F839B829AA8EB090B9B4581
:10056C0028BF9B465B464946284606F05BFB044683
:10057C000028ECD182995A4638A808F088FCD94456
:10058C00C5E7DFF834914FF0FF370DF1160305AADC
:10059C0006A907A805F0DDFFB0F10008C0F28880BD
:1005AC007BD1BDF816B0BBF1100F18D1BDF81440BB
:1005BC00202CCAD10699234638AA284606F032FBCD
:1005CC008046002874D1224638A90DA806F00DF8F3
:1005DC0004463A4B1B688342B9D10124D5E7BBF1E1
:1005EC00010F37D1BDF81430202BAED8069938AA9C
:1005FC00284606F017FB8046002859D19DF814B008
:10060C00BBF1200F03D94FF0FF384746BDE7D9F8AF
:10061C0000302B4F0393039B9845F4DA1DA808F088
:10062C0032FC00211DA803F0ADFC7A6857F8081BBA
:10063C0012681DA808F02BFC15A91DA808F060FC79
:10064C005A4638A915A806F07BFB0028DDD008F126
:10065C000108E0E7BBF1200F97D17B1C95D0D9F8AE
:10066C000030BB4216DDBDF81430B3F5807F7FF44B
:10067C006CAF069938AA284606F0D4FA8046B8B969
:10068C00FFB2BDF81430009738AA59460DA800F0F7
:10069C0019F806464FF0FF3777E73CB1074B1B685C
:1006AC00B34218BFDAF80060344650E74FF0010847
:1006BC0044464CE70000002028970000600300200F
:1006CC002C9700002DE9F04F1F46ADF54B7D6A4B82
:1006DC009DF850631D68804627A88A46914608F00D
:1006EC008FFB664B53F83640029403EBC6038AAA81
:1006FC005B681B681C442146302302A807F013F9E1
:10070C0068BB029B8A9A13449C4228D129AA214691
:10071C0002A807F01CF910BB0DF1B00B5A4621468C
:10072C0002A807F014F90646C8B929A807F030FC4E
:10073C00029B28909C4212D1CDE9006B3346324685
:10074C0029A927A808F019FB48B927A803F0ACFB86
:10075C0028B929A807F01CFC874228900AD027A8A2
:10076C0008F058FB27A808F055FB28460DF54B7DE3
:10077C00BDE8F08FB7F5807F02D04FF0FF35F1E781
:10078C00BAF1200FF9D18AAA494627A803F0B2FB87
:10079C0004460028F1D19DF82733BC2BEDD152AF84
:1007AC000390DF263D460CA808F06DFB00210CA839
:1007BC0003F0E8FB20220DF207310CA808F067FBD0
:1007CC00042203A90CA808F062FB04A90CA808F0E9
:1007DC0097FB202E9DF80F30B146A8BF4FF0200993
:1007EC00013338464A4604A9A6EB09068DF80F30AA
:1007FC0006F0B6FA002E4F44D5DC2F468AAB2946BC
:10080C000022087813F8016B01327040DF2A01F8DE
:10081C00010BF6D12B7803F07F032B7017F8016BCB
:10082C00002EAAD10134BE2CF8D195F8BE30012B84
:10083C00A3D10CA808F027FB31460CA803F0A2FBAF
:10084C000F4908220CA808F022FB414620220CA8D4
:10085C0008F01DFB20220DF207210CA808F017FB55
:10086C0004A90CA808F04CFB20220DF2073104A8B7
:10087C0005F0BBFE054682E7000000202C97000027
:10088C00F89B00002DE9F04186B00223DFF86C8064
:10089C00ADF800300D466F46002617F8010B01A984
:1008AC0001F09AF80446A0B901988168102302AAB5
:1008BC00103906F0B7F90446019806F0B2F944B9BC
:1008CC001022414602A806F03BFA40B12EB14FF07F
:1008DC00FF34204606B0BDE8F0810126DDE7019823
:1008EC0006F028FF0423A0F108012A46019806F01F
:1008FC0099F90446019806F094F9EAE7DC9A0000AD
:10090C0007B505F086FE6946FFF7C6FD38B1054808
:10091C00452106F079F9002003B05DF804FB00983E
:10092C00FAE700BF009C00002DE9F041354B88B080
:10093C00064600200C461D6805F0B2FD06A9C0B2A3
:10094C0001F04AF8002857D1214605F0A9FD2C25C5
:10095C0007A9C0B205FB046501F03EF8002833D0AE
:10096C002C27674306EB0708069BD8F8101011F0EC
:10097C00100138D14FF480720192234A0092CDE9D4
:10098C0003112A4602910846FFF79EFD05461F4BB0
:10099C00F25906989A420CD1D8F80C20B8F80830C5
:1009AC009B1806D28268934203D2194B1B68AB4248
:1009BC001FD02CB38268002106F05EF9154A164848
:1009CC00452106F021F913E0079806F070F9074667
:1009DC00079806F026F96B1EEA1C13F8011FB942A2
:1009EC00BED19342F9D11CB10699304605F0F5FE03
:1009FC000125069806F015F9284608B0BDE8F081E7
:100A0C00064ADCE700000020D82900203DB8F39608
:100A1C0060030020439C00004D9C00003B9C0000A8
:100A2C0073B50D46044600212846CDE9001105F0AA
:100A3C0093FE30B3164E2368B34203D101AA20466D
:100A4C0005F01FFEE36AB34204D16A460121204639
:100A5C0005F017FEDDE90032934288BF0193019B3C
:100A6C00AB60019A2946204600F034FB094B1A680A
:100A7C00002A03DD0848572106F0C6F8002002B012
:100A8C0070BD05F10801FFF7FDFEAB680193E8E7C7
:100A9C003DB8F396C40F0020759C00002DE9F84F6B
:100AAC00DFF870B01C4C1D4D884691469A460026C6
:100ABC000B9B9E4201D300200FE00B9B154A9F1B02
:100ACC00B7F5806F28BF4FF480673B4606EB0A01F1
:100ADC00404606F0A7F810B10120BDE8F88F0A993E
:100AEC003B465A467118484606F0B1F80028F3D137
:100AFC00C4F800563E44C4F80456C4F80856C4F86A
:100B0C000C56C4F81056C4F81456C4F81856C4F849
:100B1C001C56CDE7640B0020000001403546526E98
:100B2C002DE9FF418F4B43620E468F4B036500212D
:100B3C000446084605F0B4FC04F12001C0B200F0F4
:100B4C004BFF0121002005F0ABFC04F14C01C0B2BD
:100B5C0000F042FF0546204605F0D4FD074668B973
:100B6C0000221146204605F076FD074600B37F486B
:100B7C000022572106F048F801238FE07C488022A0
:100B8C00572106F041F801239F4284F85830E7D1F1
:100B9C0094F858308DF80730042B00F28280012B2A
:100BAC0000F2858000F09C80FF2384F8583097E099
:100BBC00204600F0A7F90028DED0684605F0C3FDFA
:100BCC006946204605F05EFE18B16A483A46572140
:100BDC00D0E7684605F0C0FD80F001016A46C9B255
:100BEC00204605F038FD02460028C0D1684605F0C5
:100BFC00B3FD074660BB69462046FFF711FF9DF821
:100C0C00073084F85830033B012B06D8384605F0E2
:100C1C0087FE10B1FF2384F858309DF80730023B53
:100C2C00022B0BD8002005F069FE38B1FF2384F8A5
:100C3C0058305148452105F0E7FFFEE794F858304D
:100C4C00FF2BF6D06A460021204605F004FD93E701
:100C5C009DF80780B8F1010F15D1104602F0A4FEE3
:100C6C00831E022B07460BD841462046FFF75CFE3D
:100C7C00424B1B68984203D0012814BF052701275B
:100C8C0084F8587084E701212046FFF74DFE3B4B5A
:100C9C001B6898420CBF9DF80730052384F8583028
:100CAC0076E7052B80D1002005F03AFE13E069466B
:100CBC002046FFF7B5FE94F85830DA1E012A054697
:100CCC000CD8002005F02CFE054600287FF46CAFF4
:100CDC00002005F013FE054610B165E7022BF7D096
:100CEC0094F85830FF2B04D12348452105F08CFF94
:100CFC00FEE7012B10D06A460021204605F0ABFC24
:100D0C00054648B1E06C05F08CFF206A05F089FFC0
:100D1C00284604B0BDE8F08100212046FFF704FE10
:100D2C000746DFF85880D8F8003098420FD11022CF
:100D3C000021684606F01FF8206A05F0BAFB3071F6
:100D4C00236A5B683460D8F80050B360DAE7E06C73
:100D5C0005F067FF206A05F064FF002D08BF3D46D3
:100D6C00D6E700BF6407002064030020E69C000067
:100D7C00A49C0000129D00003C9D0000600300201C
:100D8C0038B5064D044660220021284605F0F3FFD5
:100D9C0021462846FFF7C4FE38BD00BF640F002073
:100DAC0073B516461D4643B15B79012B07D121B9AA
:100DBC00204B2A681B689A4217D8002418E0022B93
:100DCC00FBD12B68012B07D91A4A12689342F4D82D
:100DDC00B1FA81F14909F0E7EFD131B10129ECD138
:100DEC002979023918BF0121E7E7436A5C680021C1
:100DFC00002005F055FB01A9C0B200F0EDFD30B1AB
:100E0C000124019805F00DFF204602B070BD21466B
:100E1C0001982023324605F005FF04460028EFD147
:100E2C00002DEED03468044BE41A18BF4FF0FF3499
:100E3C00E7E700BF040000203DB8F3962DE9F04F22
:100E4C00074685B00C4601460020164605F0D4FB3B
:100E5C00051E50DB3846E46D05F0DBFB5FFA84F9C8
:100E6C006B1E09FB03084FF0000A4FF0010B4FF00B
:100E7C00FF349DB9BAF1010F03DD2148452105F07E
:100E8C00C3FE631C06D07F2C2ADC013440F2011314
:100E9C003460B380284605B0BDE8F08F6B1E00931C
:100EAC000DF10F0201234146384605F0BBFE031E2F
:100EBC00019322DB01220DF10F01384606F04EFCA6
:100ECC00019B40B15B4501D00AF1010A009DA8EBE2
:100EDC0009089B46CDE7B4F1FF3F08BF2C46F5E768
:100EEC000223803C7371631004F00104013301345C
:100EFC0033603471CEE70725CCE70125CAE700BF84
:100F0C00489D000038B5816A426D914208D0531C4F
:100F1C008B4205D01348572105F076FE002038BDD2
:100F2C0080291CD910485721F6E7446A056D04EB5B
:100F3C00C30405EBC30564686D68AC4202D00B4872
:100F4C005721E9E701339A42EFD1914205D9436A1F
:100F5C0003EBC2035B68A342F1D10120DFE700235E
:100F6C001C46F0E76B9D0000A39D0000D29D000085
:100F7C0000B589B004A9022006F062FC9DF810208F
:100F8C00012A41D0254B2649032A08BF0B469DF860
:100F9C00132002929DF8122001929DF811202148F5
:100FAC0000924921204A05F02FFE06A9052006F0E3
:100FBC0047FC9DF81820012A28D0184B1849032A01
:100FCC0008BF0B469DF81B2002929DF81A20019237
:100FDC009DF8192000921348144A492105F014FE7B
:100FEC009DF81030012B13D19DF81230032B0FD12B
:100FFC009DF81830012B0BD00D48492105F004FE4B
:10100C00022009B05DF804FB0A4BC0E7094BD9E795
:10101C000948492105F0F8FD0020F2E7FE9D00008B
:10102C00079E00001B9E00000D9E00005C9E0000B1
:10103C006C9E0000029E00008B9E000070B54B68F9
:10104C0014461E4A03F0FF23934286B006460D4613
:10105C002FD10B68012B2CD104A9204602F04EFC99
:10106C009DF81020012A26D0154B1649032A08BFDB
:10107C000B469DF8132002929DF8122001929DF8C8
:10108C00112000921048114A492105F0BDFD9DF830
:10109C001030032B0DD12146304605F09EFB204627
:1010AC0006F0C1FBA968204605F0C6FA204602F0FE
:1010BC0005FC06B070BD064BDBE700BF0001000469
:1010CC00FE9D0000079E00001B9E00005C9E000021
:1010DC00029E00002DE9F04F054689B07D480C4674
:1010EC004921174605F090FD6B6A01225E680023CA
:1010FC003344BB42114602F10102F9D3764F20462C
:10110C00396005F029FB08B3E86D05F070FAAB6A9D
:10111C0003F1FF3800233344834202D208F1FF3835
:10112C00F9E73B68434511D36C48572105F06CFD3A
:10113C003A686B4808FB06F302FB0662572105F080
:10114C0063FD0123E37109B0BDE8F08F06A902200D
:10115C0000F042FC07A9052000F03EFC079A21464E
:10116C002846FFF76BFF6379012B0BD1D7F8008072
:10117C00DFF870B13B68DDF81890B8F1000F11D1B1
:10118C0001232360022363714FF001083B68DDF8F3
:10119C0018A0984549D9504605F043FD079805F02D
:1011AC0040FDD0E7226801339B1A98453AD86B6A08
:1011BC00196853F8380003EBC803012A53F8083CAC
:1011CC00A3EB0103A0EB010A049311D1079B03933A
:1011DC00E368022B08D04946284605F0FEFA224661
:1011EC004946284605F02FFB0399284605F0F5FAE9
:1011FC0032465146484605F0EEFA049B4A464946AB
:10120C00CDE900A62846FFF749FC2146284605F003
:10121C00B0FA23680133236020B1DBF800300133CE
:10122C00CBF8003008F1FF38A4E7236898454ED37B
:10123C006A6ADDF81CB052F8381004914FEAC80302
:10124C00083B11680391D1582A6DD0581368A0EB54
:10125C0003092379012B38D1039B3246C91A504616
:10126C00059105F0B8FA059900914B46524659463E
:10127C0001962846FFF712FC2146284605F079FA1C
:10128C000223237118B1174A1368013313603246D5
:10129C004946584605F09FFADDE9032351469B1A4F
:1012AC00CDE900965A462846FFF7F8FB214628461A
:1012BC0005F05FFA2368013323600123237130B1F9
:1012CC00084A13680133136001E0022BDFD008F1E8
:1012DC0001085BE7A29E000004000020CB9E0000EA
:1012EC00FA9E0000C40F0020134A4FF0FF33012177
:1012FC005160C2F84833C2F8083302F5C04251605D
:10130C00C2F84833C2F8083302F598325160C2F87B
:10131C004833C2F80833A2F508320021C2F8001590
:10132C00C2F8083302F5E832C2F808354FF08042B3
:10133C00C2F80833704700BF00B00040014B1B6877
:10134C00184700BF08000020014B1860704700BF11
:10135C000800002007B50B46002102460091034807
:10136C0000F014F903B05DF804FB00BF4913000052
:10137C002DE9F047058B04462807904611D4022925
:10138C0005F0070540F0CD80204605F013FB78B141
:10139C000138218B042811D8DFE800F0C3106D85CB
:1013AC00950001290CBF45F0100545F0200525835B
:1013BC0088F31188BFF36F8FBDE8F08701F0070A3F
:1013CC00AA4500F0A6800027B9463E46A368002B2C
:1013DC0000F0BD8041F00801218388F31188BFF330
:1013EC006F8FA168002900F0BB800D68002900F008
:1013FC00B780D1F80480334652462046C047002DB2
:10140C0076D02B6829461D46F0E701F007035A1FDA
:10141C00012A1BD8002221F00701062B276889B26C
:10142C00C4E9002209D13B4603E0628B013262839E
:10143C001B68002BF9D141F002012183204605F0F5
:10144C00B9FA00287BD041F0200177E0042B0AD1B7
:10145C0021F0070189B22183204605F0ABFA10B1C7
:10146C0041F020012183218B01F0070AAA4550D0BD
:10147C000027B946AAE7236921F0070141F00601CC
:10148C00062DD3F8009021832DD1B9F1000F40D057
:10149C0041F00801218388F31188BFF36F8F3A491B
:1014AC002046C84729E021F00701236941F00401D7
:1014BC0089B2042DD3F804902183E6D000273E4650
:1014CC004FF0040A82E721F00701236941F005017E
:1014DC0089B2052DD3F808902183D6D000273E463B
:1014EC004FF0050A72E700273E464FF0060A6DE7FB
:1014FC002B4687E7B9F1000FD1D14FF02003EFF362
:10150C00118883F31288BFF36F8F238B23F00803AA
:10151C002383258BEA062ED525F01003238305F0B3
:10152C0007056669218B002EBFF66FAF0023276875
:10153C00C4E9003321F0070141F001012183218B23
:10154C0001F0070AAA454FF000097FF43FAF002FC6
:10155C009BD041F00801218388F31188BFF36F8F72
:10156C00002FC7D03D68394633465246204605F019
:10157C004DFA2F46F4E7AB067FF51AAF25F02003A2
:10158C00238305F00705FFE6456A00002DE9F04FBF
:10159C008DB01D46531E8246019103934FF00009F6
:1015AC00039B5878252803F1010419D11E4600200D
:1015BC004FF0FF38023603460290444631780396CA
:1015CC00392954D81F2914D8002900F0F081019929
:1015DC002520D04701993078D04709F10209DFE77F
:1015EC00002800F0E4810199D04709F10109039426
:1015FC00D6E7A1F12002192AE9D801A757F822F061
:10160C0075160000DB150000DB15000075160000D8
:10161C00DB150000F5160000DB150000DB150000E3
:10162C00DB150000DB1500004117000075160000EB
:10163C00DB1500005517000001170000DB1500003A
:10164C000F1700002F1700002F1700002F17000096
:10165C002F1700002F1700002F1700002F17000066
:10166C002F1700002F17000008460136A6E758294F
:10167C0000F0EE80A1F16302D7B2172FA7D8172A7A
:10168C00A5D801A757F822F0031900007B1700001A
:10169C00DB150000DB150000DB1500005B170000FC
:1016AC007B170000DB150000DB1500005B1700004A
:1016BC00DB150000DB150000DB15000037180000FF
:1016CC00DB150000DB150000D7180000DB1500004F
:1016DC007B170000DB150000DB150000371800003D
:1016EC00DB1500005B17000001992520D04709F19C
:1016FC00010955E7029A02F0FE0202924FF000082F
:10170C00B3E7002C0DDAB8F1000F0DDA029A002ABB
:10171C0000F0458124EAE4740A2202FB0414303CF4
:10172C00A3E7B8F1000FF5DB0A2202FB0812A2F1C5
:10173C0030089AE7B8F1000F55F8042B80F231818C
:10174C00002A80F230815442022202928DE76829ED
:10175C0003D1682B06D1482387E76C2902D16C2B67
:10176C0000F02381002B7FF432AF0B467DE77A2B00
:10177C0006D1752955F8046B14D14FF0000B0CE011
:10178C006C2BF6D04C2BF4D1073525F007037529BB
:10179C00D3E9006B03F1080506D120283ED1864F12
:1017AC00013C09E04FEAE67BBBF1000FF5DA76422B
:1017BC00824F6BEB4B0B013C0DF12D03059300237A
:1017CC000493304659460A220023FEF781FC049B01
:1017DC0003F1FF3CCDF810C0DDF814C030320CF82A
:1017EC00012DCDF814C0B4465A46BCF10A0F72F163
:1017FC00000206468B46E4D2C3F1010B30330DEBED
:10180C000306B8F1000FA6F104066DDA029BD907A6
:10181C007CD4A8EB0B03A4EB0B0413E02B280ABF1E
:10182C00674F684F04F1FF34C6E770290FD155F8A4
:10183C00042B0023FAB9644E053C6FF004034FF0FF
:10184C00050B604F029A92076FD4A04665E0782191
:10185C006C2B03D155F8042B002308E04C2BF9D149
:10186C00073525F007031D465B6855F8082B232820
:10187C0025D1880621D5554F023C01F06001A1F11C
:10188C00390B0DF12D0E002602F00F01092988BF2E
:10189C00594430310EF8011D102A4FEA121141EA59
:1018AC0003714FEA131073F1000306F1FF3C08D2E9
:1018BC00C6F1010B06F13003A1E7454FDCE7414FC0
:1018CC00DBE766460A460346DEE755F8046B30460E
:1018DC0005F02FFAB8F1000F834602DB4045A8BF94
:1018EC00C346384F4FF00008A8EB0B03002B92DDDA
:1018FC00A4EB0804A6E755F8043B8DF81830013C1E
:10190C004FF0FF334FF0010B06AE9AE7A046EBE722
:10191C00029301992020D047029BB8F10108F7D51A
:10192C0024EAE472013C9144A41AB84606E00493FC
:10193C0002920199D047029A049B9046424612F8B3
:10194C00010B0028F3D11A46013A15D5002BACBF78
:10195C00C7EB03077F425B46013B15D5BBF1000F7C
:10196C00A8BF5F444F442646013E14D5002CA8BFA7
:10197C003F1907EB080913E60493029201993020F2
:10198C00D047049B029ADFE70293019916F8010BEA
:10199C00D047029BE0E701992020D047E4E70122E1
:1019AC00D3E6904661E614465FE64C235DE6484676
:1019BC000DB0BDE8F08F00BFC6A300004AA0000028
:1019CC004CA00000A8A5000054A000004EA00000F0
:1019DC0051A0000002F0F8BB70B5114B1C680D460D
:1019EC00DCB1104B196800238B4202DB6FF0010055
:1019FC0070BD224612F8106B864202D00133144699
:101A0C00F2E7E06810B96FF01200F1E707F06EFB37
:101A1C000028F8D02C600020EAE76FF00C00E7E714
:101A2C000C0000203897000070B588B005460C46B5
:101A3C00C0B269461646FFF7CFFF00281BDB0098A3
:101A4C00C8B143680293836822680195CDE90336D7
:101A5C000023CDE906230593C56805F0E2F86DB1C6
:101A6C002846084901AA05F018FD079808B9059BF6
:101A7C00236008B070BD6FF01500FAE76FF012002C
:101A8C00F7E700BFC96C0000014910220A607047DB
:101A9C0010ED00E072B6404080F31188BFF36F8FF9
:101AAC00BFF34F8F30BF62B6BFF36F8F704700BF6D
:101ABC0072B6494081F3118820BF80F3118862B659
:101ACC00704700BF37B505460C46C9B18B6800930B
:101ADC00D1E900230E48452105F096F8636900937F
:101AEC00D4E903230B48452105F08EF8E2690A4836
:101AFC00452105F089F8A2690848452105F084F8CC
:101B0C002146284603B0BDE8304003F0A1BC00BF1D
:101B1C005AA000008EA00000C2A00000D6A00000B9
:101B2C0040B2002807DB044A4109012300F01F00E2
:101B3C00834042F82130704700E100E0054B420938
:101B4C0000F01F0053F82220012303FA00F010408C
:101B5C00704700BF00E100E040B20028A8BF00F1D0
:101B6C00604001F10101B8BF064B4FEA4111ACBF17
:101B7C0000F5614000F00F00C9B2B4BF195480F8F1
:101B8C000013704714ED00E030BFFFF7FDBF00BF3E
:101B9C000B4A08B50B4B22F07F029A60BFF34F8FB4
:101BAC00BFF36F8FD3F8882022F47002C3F888201B
:101BBC0003F0D6FC04F0FAFA00F0C8FA03F014FDB6
:101BCC000000000000ED00E0094A0A49936809682A
:101BDC009967094958674B6843F080534B60002361
:101BEC0083F31188BFF36F8F9368986F704700BFB2
:101BFC009C110020AC9A000000ED00E012498A68AC
:101C0C004FF030001044EFF3098C80E8F01F2020D7
:101C1C0080F31288BFF36F8F0C4F4FF000668A6908
:101C2C008A603E60506F0023536780F3118804B5BF
:101C3C00104600F027FBBDE8044002F1300090E8AC
:101C4C00F01F8CF3098870479C11002004ED00E014
:101C5C001EF0040F0CBFEFF30880EFF309808169CD
:101C6C0011F8021C0229FFD001B505F049F801BD9D
:101C7C0042F8203C009B42F81C3C0A49019B42F86C
:101C8C00183C029B42F8143C21F001014FF0807388
:101C9C0042F8043C42F8081C0023203A02654367D2
:101CAC00704700BFAD690000094A0346906870B1E7
:101CBC0013F1160F406E05D0A0F140029A4205D8E0
:101CCC00834203D2814228BF002070470020704716
:101CDC009C11002008B5094B98600D46144600F085
:101CEC00D1FA204685F30988002163B681F3118867
:101CFC00BFF36F8F0022002304F052FE9C110020D2
:101D0C0001B5EFF30580A0F110004FEAC0000449C3
:101D1C00014409C99847BDE8014002490847000041
:101D2C002C950000351D0000044B99689869884279
:101D3C0003D003494FF080520A6070479C11002079
:101D4C0004ED00E02DE9F041324C0746884632485C
:101D5C004521154604F058FFA36ADE0603D52F482B
:101D6C00452104F051FFA36A180703D52C484521DF
:101D7C0004F04AFF274CA36A990728D46FF0150684
:101D8C00244CA36ADB0703D52648452104F03CFF0D
:101D9C00A36A9C0603D52448452104F035FF1D4C4D
:101DAC00A36AD80628D4A36A990725D40020A36A6D
:101DBC00184A9B0642BF636A23F400536362936A1A
:101DCC0043F0FF03936200232B70BDE8F0811748AA
:101DDC00452104F019FF666BA36A1A06CED5144888
:101DEC003246452104F010FFB8F1000FC8D0A36AA9
:101DFC0023F08003A362C3E763681A05D6D539467E
:101E0C003046FFF751FF0028D0D080F3098802201C
:101E1C00CDE700BF00ED00E009A1000024A1000007
:101E2C005CA10000ACA10000D0A1000074A10000D6
:101E3C0091A1000010B51D4C1D48452104F0E4FE95
:101E4C00A36A9B0103D51B48452104F0DDFEA36A60
:101E5C00DC0103D51848452104F0D6FE134CA36AC7
:101E6C00180303D51548452104F0CEFEA36A590387
:101E7C0003D51348452104F0C7FE0C4CA36A9A0302
:101E8C0003D51048452104F0BFFEA36ADB0303D53C
:101E9C000D48452104F0B8FE044A936A6FEA0343E7
:101EAC006FEA13439362002010BD00BF00ED00E009
:101EBC0004A2000021A2000039A2000058A20000D8
:101ECC007BA20000A5A20000C4A2000070B5234CA8
:101EDC0006460D462248452104F096FEA36AD90415
:101EEC0003D52048452104F08FFEA36A1A0503D5BB
:101EFC001D48452104F088FE184CA36A9B0510D59B
:101F0C001A48452104F080FEA26BA36A180408D578
:101F1C001748452104F078FE1EB1A36A23F4004350
:101F2C00A3620E4CA36A590503D51248452104F04F
:101F3C006BFEA36ADA050BD50F48452104F064FE4D
:101F4C00064A936A002043F47F439362287070BD65
:101F5C00A36A9B04F4D509484521EFE700ED00E0A6
:101F6C00F4A200000FA300005CA1000025A3000058
:101F7C0043A300005DA300007DA30000D0A10000DE
:101F8C002DE9F0415D4B5F688AB00546C7F3080444
:101F9C00002686F31188BFF36F8F02F07F43B3F1F5
:101FAC007F4F07D102F00C03082B14D15448452164
:101FBC0004F02AFE002635464FF00008E31E8DF88B
:101FCC000780092B00F28780DFE803F00A7A7E761F
:101FDC0085858585858210074CBF0D460126EBE76C
:101FEC004848464C452104F00FFE8DF80780E36A03
:101FFC009A0705D54448452104F006FE002433E039
:10200C00E36A002B02DA41484521F5E7E36A5B00FD
:10201C00F4D53F48452104F0F7FD6369AA6943F400
:10202C0080736361BFF34F8FBFF36F8F636932F8B7
:10203C00022C23F480736361BFF34F8FBFF36F8F58
:10204C004DF602739A4209D0A36ADBB233B30DF199
:10205C00070201212846FFF775FE2FE02A682D485C
:10206C00452104F0D1FD2C689DF807309BB9202246
:10207C00294602A804F074FE099B002E38D0C3F345
:10208C00080222B96FEA53236FEA4323099302A98A
:10209C002046FFF717FD0AB0BDE8F081A36A13F4E0
:1020AC007F4F05D00DF107010120FFF70FFF05E071
:1020BC00A36AB3F5803FA1D3FFF7BCFE0446D3E778
:1020CC000DF107020021C5E70DF107010020ECE737
:1020DC001148452190E71149114A124817F4F87F2D
:1020EC0008BF0A46A4F11003452104F08DFD85E7D5
:1020FC0023F4FF7323F00103C8E700BF00ED00E0F9
:10210C00C8A30000F8A3000014A400003AA4000027
:10211C004DA4000071A4000092A400009AA300003A
:10212C00AFA30000BBA40000024A536943F01003A4
:10213C005361704700ED00E0EFF30880EFF3098185
:10214C0001B57246FFF71CFF01BD00BF0448002318
:10215C002021C2180133272B82F80013F9D17047C4
:10216C0000E100E0002080F31488BFF36F8FFFF7CD
:10217C0031FC00200D490860BFF34F8F0C4880F3F1
:10218C00088800F02BF8202080F3118809484FF4C0
:10219C000461401880F30988EFF31480022108438E
:1021AC0080F31488BFF36F8FFFF7F2FC94ED00E01F
:1021BC0000610020402F00200749D1F89020002317
:1021CC00C2F307221846934200DB7047C1F89830DF
:1021DC00C1F8A0000133F6E700ED00E008B572B6D7
:1021EC00002383F31388FFF7E7FF144B4FF0FF3204
:1021FC00C3F88020C3F88420C3F88820C3F88C204F
:10220C00C3F89020C3F89420C3F89820C3F89C20FE
:10221C00C3F88021C3F88421C3F88821C3F88C212A
:10222C00C3F89021C3F89421C3F89821C3F89C21DA
:10223C0062B6BFF34F8FBFF36F8F08BD00E100E0B4
:10224C00084B9B6883420BD1EFF3058343B1064BDC
:10225C005A6842F080525A605A6A22F400425A621A
:10226C0003F032BF9C11002000ED00E0024B034A4A
:10227C000348012100F07CB8000001200000002080
:10228C009C970000426E054B403A1A60044A40216C
:10229C00C3E901121846012100F074B8C80F0020E0
:1022AC0000000B15F8B5244E00258D420FDA44685A
:1022BC00002C3ED09BB104F1FF3C14EA0C0F08D06B
:1022CC001E482A46452104F09FFC6FF0150210466B
:1022DC00F8BD1F2CF4D907681CEA070FF0D1202C8D
:1022EC000768D0F808C05FFA82FE10D9B4F1004F2D
:1022FC000FD8013CB4FA84F4C4F11F046400BEF19D
:10230C00070F4CEA040C06D90D484521DBE70824DD
:10231C00F5E73E24F3E727F01F04144344F01004C0
:10232C00C6F89820C6F89C404CF00104C6F8A040B2
:10233C00013201350C30B8E700ED00E0D7A4000005
:10234C00FFA40000044B0522C3F89420BFF34F8F69
:10235C00BFF36F8F704700BF00ED00E0BFF35F8FDE
:10236C00024B0022C3F89420704700BF00ED00E040
:10237C0010B5034C01232278FFF794FF207010BD99
:10238C00D82A002008B5094A00231278FFF78AFFE3
:10239C0010F1160F03D0064B0022072800DD08BDF4
:1023AC00C3F89800C3F8A0200130F6E7D82A002023
:1023BC0000ED00E014490868082810B521D8FFF793
:1023CC00CDFF124C49680022904201F10C0105D15D
:1023DC000F4B1870FFF7B6FF002010BDC4F8982003
:1023EC0051F80C3C23F01F03134343F01003C4F8C3
:1023FC009C3051F8043C43F00103C4F8A030013286
:10240C00E2E74FF0FF30E8E7A897000000ED00E0AE
:10241C00D82A0020014B1860704700BF1000002024
:10242C004FF02002EFF3118382F31288BFF36F8F0A
:10243C00044A0121C2F8401583F31188BFF36F8F52
:10244C000020704700E001404FF08043C0B2C3F859
:10245C001C05BFF34F8F0549054BCA6802F4E062B7
:10246C001343CB60BFF34F8F00BFFDE700ED00E0DF
:10247C000400FA0520B1034B800143F00103184717
:10248C00704700BF20970000084B70B5C31A0D466B
:10249C0007499B10044659430648402204F093FC1C
:1024AC002B4601462046BDE870401847E80F002037
:1024BC00B76DDBB65494000073B50C4C0C4A40233A
:1024CC00041B00930D460B460A49A41061430646B3
:1024DC00094804F0A4FC011E05DA30462B4602B074
:1024EC00BDE87040184702B070BD00BFE80F002077
:1024FC00956E0000B76DDBB654940000002270B5E9
:10250C00012104461046FFF727FB0F4802F044F860
:10251C000E4B984215D106F086FD26690C493046C3
:10252C0004F098FA00280BDB01253564246908496E
:10253C0004F11C0004F08EFA002801DBE564002095
:10254C0070BD6FF00400FBE7952500000000AD0B9B
:10255C00C897000070B501460C2309484B43C418BA
:10256C00D4E90E5600224033A263184404F018FC40
:10257C002DB132462B460348BDE87040184770BD5C
:10258C00E80F00205494000010B1012804D07047CB
:10259C00034B1B6C5B0701D1FFF7DCBF704700BF1F
:1025AC00E80F002008B54FF02003EFF3118183F3FF
:1025BC001288BFF36F8F124A136843F00200106049
:1025CC00DA0708D481F31188BFF36F8F0120BDE8BF
:1025DC00084001F0F1BF4FF08043D3F80C24D3F83E
:1025EC000C34D307EED5074804F0DAFB81F31188DD
:1025FC00BFF36F8F0020BDE80840FFF7ABBF00BFF3
:10260C0038100020281000201FB500220123CDE92E
:10261C000223094ACDF800D06B46CDF804D004F063
:10262C002CFC002805DB4FF480420023684603F0A5
:10263C0023F905B05DF804FBAD6E000010B5074C36
:10264C0023782BB94FF4A57006F0B8FE0123237044
:10265C00BDE81040002001F0AFBF00BFD92A002018
:10266C00094BBFF35B8F53E8002F22F0020143E8C4
:10267C0000100028F7D1BFF35B8FD30702D40120E1
:10268C0006F0DEBC704700BF381000202DE9F04189
:10269C003849BFF35B8F0746012251E8003F41E800
:1026AC0000200028F9D1BFF35B8F33B9324933488E
:1026BC004B60CB608A6004F0E0F97B1E012B2BD8B9
:1026CC00012F07D14FF08043D3F81C3403F00303E0
:1026DC00012B21D006F019FD0546F8B9284B1B78C3
:1026EC00E3B14FF080430222C3F808230646DFF81B
:1026FC0094804FF08044D4F81834D4F81824D203C2
:10270C0016D503F00303012B01D0012F10D15DB3BB
:10271C0086F31188BFF36F8FBDE8F0814FF0200373
:10272C00EFF3118683F31288BFF36F8F0125DEE779
:10273C00ADB13046FFF7BCF9D4F81835002BDAD11F
:10274C00D4F80421002AD6D0C4F80431D4F80431CA
:10275C000123C4F81835C8F88031A360CBE70021F9
:10276C00212003F091FCE7E74FF080430222C3F8ED
:10277C000423D1E7E40F0020D40F00200410002024
:10278C000C2F002000E100E008B5074806F0AEFC75
:10279C0038B10648FFF73EFE0448FEF7D5FD002091
:1027AC0008BD6FF01200FBE784940000BD27000009
:1027BC000A2838B5074D044604D1AB680D215B6877
:1027CC0028469847AB6803485B68E1B298472046B7
:1027DC0038BD00BF8494000030B54068057B01F023
:1027EC001F04B2F5001F85B044EA451405D12046FC
:1027FC0002F0A6F9002005B030BD0025B2F5800F1F
:10280C00CDE9025514D1B3F1007F0CBF042305238D
:10281C008DF808300023194602AA204601F0C6FFA5
:10282C001D4B984235D10121204602F045F9E1E7D4
:10283C00B3F1C06F22D0B3F1007F14BF0123022388
:10284C008DF808308368CB40D907E3D4B2F1A07F70
:10285C00E0D104F01F0303F5E0734FF0A04252F8EF
:10286C002330DB07D6D40DF107052946204602F0AC
:10287C00CFF80A4B984203D00395CBE70323DFE74D
:10288C00284602F013F9044B9842F5D06FF00B0078
:10289C00B1E76FF01500AEE70000AD0B0400AD0B17
:1028AC0010B502F0F3F8044668B902F0C7F8084B0B
:1028BC0098420AD10748214602F0A4F82246052185
:1028CC000620FFF749F9002010BD6FF00400FBE76C
:1028DC000000AD0BE5280000430970B507D10B4B88
:1028EC00596821B101250C68094E854001B970BDAC
:1028FC008A682A4002D04B68304698471CB123683E
:10290C0021461C46F2E72346FAE700BF3C100020A4
:10291C006C9400002DE9FF4147683B7B01F01F05DB
:10292C0045EA43150E4628460DF10301144602F004
:10293C006FF814F4403F80460BD1284602F028F97A
:10294C003D4B984503D19DF8030002F0A9F80020F7
:10295C000CE00023194602AA2846CDE9023301F007
:10296C0025FF354B984204D06FF0150004B0BDE83C
:10297C00F081804503D19DF8030002F091F8A30388
:10298C004BD540F206332340B3F5837F19D00CD8D6
:10299C00062B17D004D8ABB1022BE5D1042311E0E0
:1029AC00B3F5807FE0D101230CE040F20222934288
:1029BC0027D0B3F5407F26D0B3F5007FD4D10223C6
:1029CC0000E007238DF8043084F48033C3F3004314
:1029DC00E0068DF8053054BFC4F3401303232103E4
:1029EC008DF8063011D57A680123B340C2F808354A
:1029FC00002201A9284601F087FF0F4B9842A6D070
:102A0C00B2E70523DEE70323DCE7620341BF0123C2
:102A1C007A68B340C2F80C35EAE7E3064FF00003DE
:102A2C0054BFC4F3401403241A4601A928468DF858
:102A3C00044001F0BBFEE0E70000AD0B2DE9F341D3
:102A4C00476805690646786806F050FB98B93A481D
:102A5C00452104F0D9F86FF0120432683748234648
:102A6C00452104F0D1F805F11C0002F0E5FE2046EA
:102A7C0002B0BDE8F08141F27D2278683B89ADF867
:102A8C00042001A9022204F06CFA044630B103467A
:102A9C0032682B48452104F0B7F8DEE743F27D425B
:102AAC0078683B89ADF8042001A9022204F059FA98
:102ABC0004460028D1D10021632003F0E5FA214619
:102ACC001222281D04F057F94EF2E0032C83AC7649
:102ADC00AB8244F21E0278683B89ADF8042001A950
:102AEC00022204F03EFAA04604460028B5D1043771
:102AFC00AA8A1021384604F045FA04460028ACD1C5
:102B0C006A8A0E21384604F03DFA04460028A4D106
:102B1C0049F61F03022201A93846ADF804308DF89E
:102B2C00068004F02BFA0446002896D1326805483A
:102B3C00492104F069F896E774A50000A9A50000E6
:102B4C008BA50000C1A5000008B5CA07436809D4CD
:102B5C00C1F34201012908D002290DD008484521B2
:102B6C0004F052F86FF0150005E01B684FF0CC72C2
:102B7C00C3F82425002008BD1B684FF0C862F7E796
:102B8C00E8A5000070B544680669E36905469847F6
:102B9C00206A04F054FB002810DB33460A4A04F187
:102BAC000801204602F0BAF9084B984207D00848B1
:102BBC002A68452104F028F86FF0040070BD204607
:102BCC0002F0FEF90020F9E71D2C00000000AD0B0F
:102BDC00FFA5000070B544682368D3F80855D3F8F6
:102BEC000C65204602F0FCF93146284602F0B2FB97
:102BFC000546206A04F023FB204602F0E1F9034B62
:102C0C009D4214BF6FF00F00002070BD0000AD0B93
:102C1C000378012B08D0022B08D04BB9054B0B6263
:102C2C0001F1100002F008BE034BF8E7034BF6E786
:102C3C00034BF4E70000AD0B0100AE0B0200AE0B32
:102C4C000100AD0B2DE9F04F8DB0D0F804A0D0F8F9
:102C5C00108003921D460646BAF81830D8F8249016
:102C6C0002930C461422002107A804F084F88DF876
:102C7C001D504FF0FF324FF0FF33404602F0FCFD89
:102C8C0008F1100304930022002308F1100002F055
:102C9C00F3FD00273D46039B9F4201D3002427E010
:102CAC00207A020700F1AC80039B07F1010B9B45D6
:102CBC000AD2830708D4237D80EA030202F00102C2
:102CCC0003F004031A431AD075B300236268DDF8CD
:102CDC0008C0A918614514D9336801934A48CDF846
:102CEC0000C0134645212A4603F08EFF6FF01B04EB
:102CFC00404602F0A1FD20460DB0BDE8F08F012347
:102D0C00E4E7C10706D42168059309EB050004F03C
:102D1C0027F8059B62682A4495B2002B5BD13DB124
:102D2C00CDF828902B4607E0C007D4E900121BD53C
:102D3C0023680A9363680025227A089302F0010342
:102D4C0082F00202C2F34002520107A950468DF8EC
:102D5C001C3002F063F92D4B98421BD00B33984278
:102D6C0027D16FF00F04C3E701F06043B3F1005FAC
:102D7C00DED0BAF81A30934207D233682448452182
:102D8C0003F042FF6FF01504B2E7484603F0E8FF8A
:102D9C00A588C4E74FF480420498002302F06CFD30
:102DAC0050B11C483A46452103F02EFF3046FFF740
:102DBC0011FF6FF004049BE7D8F82020134B9A42C4
:102DCC0005D015483B46452103F01EFFF1E7237A59
:102DDC00DB0703D400250C345F465CE70A9B99455E
:102DEC00F8D1274606E0A91A8DB2F86819FA81F1D4
:102DFC0003F0B6FF7A689542A7F10C07F3D2E9E726
:102E0C006FF0850474E700BF24A600000000AD0B32
:102E1C00B9A6000024A7000053A70000F8B504468B
:102E2C00C06806F063F948B9E36819481A68452187
:102E3C0003F0EAFE6FF012042046F8BD257D638A8C
:102E4C00E068217C15F0030516BF4FF4D0124FF447
:102E5C00B012656813430769D0F808C03C68DA07FC
:102E6C0048BF83F44023012623F480128E40DB07F5
:102E7C004CBF3443B4433C60DCF800309847044604
:102E8C000028D9D1002DD7D0284606F097FAD3E7E1
:102E9C00A5A7000038B505464068FFF7BFFF2A68B4
:102EAC00044603464921024803F0AEFE204638BDD5
:102EBC00C2A7000038B505690C490446284640F8FD
:102ECC00044B03F0C7FD0A4905F1200006F073F925
:102EDC006068FFF7A3FF00EAE075226805482B46FF
:102EEC00492103F091FE284638BD00BF44990000EB
:102EFC0023730000D3A700002DE9F0471C1E0546E4
:102F0C000F46904610DB7AB14FEA5249D6030023A4
:102F1C00144A30464946FDF7DBF810B1124B1B78CA
:102F2C0043B9404606F04AFA2146281D3B46BDE807
:102F3C00F04718470D480B4A2F6530184FF0030324
:102F4C0049F1000185F854300023FDF7C1F8024621
:102F5C000B4605F1200002F00FFE041EE4DBBDE879
:102F6C00F08700BF40420F000C2F00203F420F00A3
:102F7C00024B0B6001231360704700BF4C10002004
:102F8C00004870476499000070B50D4628461946F4
:102F9C0016461C4604F03BFA40B9084823462A461C
:102FAC00452103F031FE6FF0150070BD24B12246AF
:102FBC002946304603F0D4FE0020F6E70FA80000A7
:102FCC0010B5012211460648064C06F0B7F806F07B
:102FDC0051F8206006F04AF86060002010BD00BF78
:102FEC00541000204C100020F8B50E46144606F084
:102FFC003DF821460546304604F009FA374650B3F1
:10300C00B6FBF5F305FB136323B9B4FBF5F305FB32
:10301C00134343B1124823463246452103F0F4FDD5
:10302C006FF0150002E0A54201D90020F8BD4FF069
:10303C00FF324FF0FF330B4802F01EFC06F016F87F
:10304C000546384601F07CFE641B2F44F9D1054837
:10305C0002F0F2FBE9E70448234632464521DDE75E
:10306C0031A80000541000200FA80000F8B50E463F
:10307C003046194617461C4604F0C9F940B91848A1
:10308C0023463246452103F0BFFD6FF01500F8BD15
:10309C0046EA040515F0030504D0124823463246CF
:1030AC004521F0E7A4B110484FF0FF324FF0FF3349
:1030BC0002F0E2FB24F00304AC4206EB050009D15C
:1030CC000A4AD2F80034DB07FBD5074802F0B4FB00
:1030DC000020DCE7795901F053FE0435ECE700BF22
:1030EC000FA8000055A800005410002000E001407B
:1030FC0070B54B79012B20D18B79032B1DD1CD7958
:10310C000DB1012D19D10A7912B1022A15D10E2255
:10311C000B684468B3F5164F266864D02BD8B3F50A
:10312C00165F63D014D8B3F5966F61D008D8B3F599
:10313C00967F60D0B3F5167F60D06FF0850051E0BC
:10314C00B3F5166F5DD0B3F5965FF6D1374B3CE017
:10315C00B3F5E14F58D007D8B3F5615F56D0B3F54E
:10316C00964FEAD1324B30E047F61224A342E4D119
:10317C004FF4000329E0B3F5613F49D013D8B3F500
:10318C00963F48D009D84DF6C024A34245D0B3F59C
:10319C00614FD2D14FF46B0317E0B3F5E13FCCD1C3
:1031AC004FF0EB7311E0B3F5612F39D008D8214CF7
:1031BC00A34238D0B3F5E12FBFD14FF0E86304E060
:1031CC001D4CA342B9D14FF080530469C6F8243585
:1031DC0043681B682A43C3F86C2503C9231D83E885
:1031EC000300002070BD4FF41D03EEE7134BECE71A
:1031FC004FF49E23E9E74FF4A033E6E74FF41C337A
:10320C00E3E74FF41D23E0E70D4BDEE70D4BDCE766
:10321C004FF06C73D9E70C4BD7E74FF46503D4E749
:10322C004FF07063D1E74FF08063CEE700B013002E
:10323C0000A04E0090D0030040420F000050270029
:10324C0000C0750000F03A0000903A012DE9F743F8
:10325C008046002201210220FEF77EFC0220FEF7B0
:10326C005FFCD8F80470D8F810603C680021C4F8F2
:10327C000015C6F80080D7F80C9001AA484604F057
:10328C00A4F9051E1EDB019BD9F8002019791868DA
:10329C0004F0B1F9051E15DB311D4046FFF728FF80
:1032AC00054678B97B68990724D506F1180001F01A
:1032BC0075FD244B984209D02348452103F0A4FC0A
:1032CC006FF00405284603B0BDE8F083337EDB00C5
:1032DC0003F1804303F5F83304F10C0204F590710B
:1032EC00C3F81015C3F81425327E01239340174AF6
:1032FC00C2F804350823C4F800353B7A53B9C4F836
:10330C001031D4F810317369C4F834350123C4F882
:10331C00383523607B689A075CBF4FF48073C4F820
:10332C0004337B68DB0644BF4FF48003C4F80433DA
:10333C003369C4F844350023C4F848350123A3602D
:10334C00E360BFE70000AD0B9CA8000000F001405B
:10335C00F8B5044607690D4605F0D7FEB0B92E4BFB
:10336C001B789BB16426606804F0E6F800BB012072
:10337C0005F057FE013EF6D10021212002F084FE1B
:10338C00F0E786F31188BFF36F8FF5E74FF020035A
:10339C00EFF3118683F31288BFF36F8F60683146A9
:1033AC0004F0CAF890B986F31188BFF36F8FEDE77C
:1033BC004FF02003EFF3118683F31288BFF36F8F66
:1033CC006068314604F0B8F80028DAD03B691D700B
:1033DC00626838691368C3F844050120C3F84805CE
:1033EC000020C3F82001D3F82051C3F858015268CB
:1033FC00D3F85801D20608D5626812680820C2F8C2
:10340C0000054FF48002C3F8042301229A6081F373
:10341C001188BFF36F8FF8BD0C2F002070B50123FE
:10342C0083400E4ABFF35B8FDC4352E8001F01EA76
:10343C00040542E80056002EF7D1BFF35B8F4FF422
:10344C00803282400648C0F80823BFF35F8FBFF379
:10345C006F8F0B4214BF0120002070BD681000203C
:10346C0000100140F8B51B49044622F07F4508685E
:10347C00C1E90023A5F50013101AB3F5400F0FD3C3
:10348C0002F07AFFA30003F1804303F58833D3F8ED
:10349C00402595421DD14FF40002C3F8402512E09F
:1034AC000D4B1B681A0A1B065E190C4B42F10007E8
:1034BC00C3E9006702F060FF094A04F5A87352F8EB
:1034CC0023309D4205D1064A4FF48033A340C2F805
:1034DC004433F8BDA80100206C100020B00100207E
:1034EC000010014011B3BFF35B8F0123104A8340DE
:1034FC0052E800CF4CEA030C42E800C10029F7D196
:10350C00BFF35B8F0B4A4FF480338340C2F8043314
:10351C00094BBFF35B8F1B68BFF35B8FC340DB07AB
:10352C0042BF064B4FF40032C3F80021704700BF76
:10353C0068100020001001406410002000E100E041
:10354C000D4B1868010A0006BFF35F8F0B4BD3F8C5
:10355C000435181841F10001B3F5801F0AD2084B4D
:10356C00D3E90023904271EB030303D210F1807076
:10357C0041F10001704700BF6C10002000100140A9
:10358C00B00100202DE9F74F14461D460746FFF702
:10359C0045FF0090FFF7D4FFA04271EB05037AD2F0
:1035AC00464B201A65EB0101984271F1000180F045
:1035BC008180434B03EB0713D3E902239D4208BFE1
:1035CC00944253D04FEA870A0AF1804A07F1500916
:1035DC000AF5883A4FEA89091FFA89F924F07F48DD
:1035EC0009F180494FF48033DAF84005354A09F582
:1035FC008839BB404646D2F804B5A0EB0B0020F04E
:10360C007F402BF07F410128CAF8401505D101936A
:10361C00132005F0D3FE2B4A019B0BF1020CA6EBF9
:10362C000C0020F07F40B0F5000F88BF66460020EC
:10363C00C9F80000D9F80000C2F8443326F07F40E6
:10364C00CAF84005D2F80405834506D0301A023872
:10365C0020F07F40B0F5000F1BD8A6EB080626F033
:10366C007F46361945F1000334461D4614490C9823
:10367C003B0101EB0712C8500D9B5360C2E9024598
:10368C00002438460099FFF72DFF204603B0BDE813
:10369C00F08F3046AFE701230B4ABFF35B8FBB4083
:1036AC0052E8000F184342E800010029F8D1BFF39B
:1036BC005B8FDBE76FF01504E3E700BF010000014F
:1036CC0098010020001001406410002073B5194BC4
:1036DC00194D00244FF0FF304FF0FF31C5F808456D
:1036EC00C3E902014FF48033C5F80433134B0226AF
:1036FC004FF400320121C5F804631120C3F8802176
:10370C002246FEF729FA1120FEF70AFA0C4A012389
:10371C00AB602B6013600B4B0B4A0093019400239E
:10372C002046FFF72FFF3046FEF7B0FF204602B0D1
:10373C0070BD00BF980100200010014000E100E0C6
:10374C006810002071340000FFFF7F002DE9F74363
:10375C00334CD4F804339A070BD5D4F8043143B165
:10376C00304A0023C4F80431D4F80431136801330F
:10377C0013604FF02003EFF3118283F31288BFF331
:10378C006F8FD4F80433DB0329D5BFF35B8F264B43
:10379C0053E8001F21F0010043E80005002DF7D18C
:1037AC00BFF35B8F11B9D4F84031C3B10025C4F815
:1037BC004051D4F8403182F31188BFF36F8FFFF77B
:1037CC00BFFE4FF02003EFF3118283F31288BFF397
:1037DC006F8F164BD3E90267B042B94106D282F320
:1037EC001188BFF36F8F03B0BDE8F0834FF0FF3843
:1037FC004FF0FF39D3E90010C3E902891D604FF483
:10380C008033C4F8483382F31188BFF36F8F0029DB
:10381C00E9D0009032463B4628468847E3E700BF94
:10382C00001001406C100020641000209801002052
:10383C00431C13B521D0012821DDB0F5000F20DA8F
:10384C00441EFFF77DFE104BD3E90013421AB2F56C
:10385C00000F0E4828BF002401322244824228BFA8
:10386C00024652184FF0000009490190009143F1B3
:10387C000003FFF787FE02B010BD0448E0E7002408
:10388C00DFE7024CDDE700BFA8010020FFFF7F004F
:10389C007134000008B5FFF753FE024B1B68C01AC9
:1038AC0008BD00BFA8010020034808B5452103F05E
:1038BC00ABF90020FEF7C8FDDEA8000030B581682A
:1038CC0085B0103921F00704054603F0F0F91022F9
:1038DC000146684603F04FFA07491022684603F088
:1038EC003FFA10236A462146284603F0B0F9003807
:1038FC0018BF012005B030BDDC9A000030B50D4674
:10390C00816887B0102302AA1039044603F08AF9A3
:10391C00002802DA012007B030BD102202A920468F
:10392C0003F01CFF00283AD11E49102202A803F014
:10393C0007FA00280CBF012302232B70204603F04A
:10394C00F9FE012301460DF10702204603F06AF946
:10395C000028DFDB9DF8073003F00F021B096A70AB
:10396C002B7101220DF10701204603F0F7FE10B96F
:10397C006B78042B03D901236B7000232B71A26885
:10398C00183A22F00702083AA91C204603F0F9FE67
:10399C000028BFD1E91C204603F04CFFBBE70323F2
:1039AC00CBE700BFDC9A00007FB5054669460220D4
:1039BC0003F046FF044610B1FF2004B070BD02A90D
:1039CC00052003F03DFF012836D129482A4649211C
:1039DC0003F01AF9274B02938DF80C409DF8005018
:1039EC009DF80860244C00222078294603F0A8FE9C
:1039FC0048B36078314603F0A3FE20B3A378042BC0
:103A0C0003D09DF8031099421DD1E378042B03D009
:103A1C009DF80B10994216D12379042B0FD16379A1
:103A2C00022B1BD1154A1648492103F0EDF8607999
:103A3C00831E022BC1D9BFE70028CFD0BCE79DF86D
:103A4C0002109942EBD00132032A04F10604CBD1C7
:103A5C000C48492103F0D8F80120AEE7032B05D020
:103A6C00094A0A49042B08BF0A46DCE7084ADAE788
:103A7C0023A900000301030396A9000005A9000077
:103A8C006EA9000081A900000AA900001CA9000071
:103A9C0000A9000001680E4A9142034615D1C16984
:103AAC00A2F11022A2F1EF1291420ED18268012AEA
:103ABC000BD8C26812B101698A4206D0586928B184
:103ACC009B691B1A5842584170470120704700BF30
:103ADC0055AA00FF70B50D4B9E68A6B13046FFF796
:103AEC00D9FF044678B9F3686BB935690DB920462E
:103AFC0070BD2846FFF7CEFF28B9EB68B34202D160
:103B0C002E462D69F2E70124F1E700BF701000206A
:103B1C002DE9F8433F4F3C68D4B1BC68C4B10028D0
:103B2C004AD0002948D001FB00F5B5FBF0F08842E3
:103B3C0042D1281D40D8A9070DD025F00306043624
:103B4C00FC6803E06368B34238D2A469002CF9D155
:103B5C002046BDE8F8832E46F2E7FB6041E006F113
:103B6C0020016318203A5A600022C3E902242A4833
:103B7C0022691A6160502949D96102B1D360626926
:103B8C005A61A1699961AAB193619A6902B15361B1
:103B9C004FF00109C4E9016923610023C4E905332D
:103BAC003B69DB072ED5FFF795FF58B31C4B4846F6
:103BBC001B6826E0FB60E8E70024C9E7A3681BB19B
:103BCC00174B01201B6898476268921B232A04F14B
:103BDC002008C4D80123A360D4E90523002ABCD053
:103BEC009361A3690BB162695A610023C4E905337F
:103BFC003B69DA0706D5FFF76DFF18B1084B1B6858
:103C0C00012098472A4600214046444603F0B3F869
:103C1C009EE700BF7010002055AA00FF669911EEB8
:103C2C00AC00002070B50546002800F08880444E9A
:103C3C003368002B00F08380B268002A7FD0834267
:103C4C0003D872681344984203D33E4B01201B687F
:103C5C009847A5F120042046FFF71CFF18B1394BFB
:103C6C0001201B68984755F8183C012B03D0354BA5
:103C7C0001201B689847002345F8183C55F8143C64
:103C8C003BB39A682ABB55F81C2C02F120015A68E8
:103C9C000A445A6055E905321A6155F8145C2B69CF
:103CAC0003B1DD6020220021204603F064F828696E
:103CBC0010B18368002B2ED033699B073FD5FFF7DB
:103CCC0009FF00283BD01F4BBDE870401B6801204A
:103CDC00184755F8100C00282AD0836843BB42685B
:103CEC00636813442033636003692361D4E90523BB
:103CFC009AB9CBB9436963618269A261B3B19C6122
:103D0C00A36903B15C61236903B1DC60202200214B
:103D1C0003F031F8D0E72C46E1E79361A369002B5F
:103D2C00E8D062695A61E5E7F360F7E7F460E7E72A
:103D3C00F36845F8083C03B15C61F460BCE770BD06
:103D4C0070100020AC00002038B514220C4605463B
:103D5C000021134803F00FF81249134800F034F80F
:103D6C00232C1CD915F003031FBF043CE418C3F12A
:103D7C000403ED1822460021284602F0FCFF084BF4
:103D8C000A499D60C3E90054203C6C609A6811603C
:103D9C009A68DA60A1F11021A1F1EF11D16138BD5F
:103DAC0070100020313C00001D3B000055AA00FFA4
:103DBC00014B1B68184700BFB4000020014B1B6867
:103DCC00184700BFB0000020024B1860024B0020C7
:103DDC0019607047B4000020B00000200A4619B1E9
:103DEC00024B00211B681847704700BFB800002029
:103DFC00F8B500F108064768044630460D4604F055
:103E0C00C7F887424BD16368B3F5807F47D8002150
:103E1C00304604F028FA002841DD0021304604F039
:103E2C0088F8E0B345B9294604F1140004F01BFAF4
:103E3C00002834DD0020F8BD04F12C0500212846B3
:103E4C0004F011FA00282ADD0021284604F071F84C
:103E5C0028B304F138050021284604F004FA0028A0
:103E6C001DDD0021284604F064F8C0B1002104F1E6
:103E7C00140004F0F8F9002811DD002104F14400CD
:103E8C0004F0F1F900280ADD002104F1500004F0DF
:103E9C00EAF9002803DD002104F15C00C6E70148C3
:103EAC00C9E700BF80BFFFFF70B500210446FFF7D4
:103EBC009FFF054610B10E4D284670BD04F1080653
:103ECC00304604F046F87F28F5D9143429462046AC
:103EDC0004F02FF80028EED0204604F03AF8012820
:103EEC00E9D93146204604F07DF90028E4DBE2E70D
:103EFC0000BEFFFFF0B50C4687B000210546164604
:103F0C00FFF776FF002839D103A803F068FF21469C
:103F1C006A6803A804F042F8044618B103A803F039
:103F2C0064FF0CE005F10804214603A804F05AF9DB
:103F3C00002807DB03A803F058FF6FF00304A4F577
:103F4C00854418E005F1680303A96F68009305F137
:103F5C0014022346084604F0A0FC04460028DDD1D8
:103F6C003A46314603A804F03AF8044603A803F095
:103F7C003CFF002CE3D1204607B0F0BD004CFAE723
:103F8C0080BFFFFF234A2DE9F041B1F1000818BFB3
:103F9C009646214A2149224F224E234D234C18BFCD
:103FAC00944602F1794208BF8E4602F5740220490C
:103FBC0002F5016208BF8C461E4918BF11461E4A05
:103FCC0018BF17461D4A18BF164602F1D14202F51A
:103FDC00C01202F51E6218BF1546194A034618BFD7
:103FEC0014461848C3F86880A2F11162A2F50C229D
:103FFC00A2F28E2218BF02460020C3E90000C3E9DA
:10400C0002ECC3E90417C3E90665C3E90842BDE83D
:10401C00F08100BFD89E05C107D57C3667E6096ADA
:10402C003AF54FA57F520E518C68059BABD9831F77
:10403C0085AE67BB72F36E3C39590EF7310BC0FF7E
:10404C00A78FF964A44FFABE2DE9F04FD1B0031D30
:10405C00019300F124030DF58E7B0393019B5A46CB
:10406C0053F8040F42F8040F03989842F8D14F9B71
:10407C0002934CADDDE94AE395E82011DDE94807F0
:10408C000493424B059306AA4FF00009B9F10F0FA8
:10409C0063D84C780B78240444EA0364CB7823432C
:1040AC008C7843EA04234FEAF52A8CEA0804059E2F
:1040BC0093608AEAB51A2C408AEA756A84EA0C0481
:1040CC00544456F804AB059654442344029CCDF852
:1040DC0008C023444FEA703A40EA07048AEAB00A5F
:1040EC0004EA0E0400EA07068AEAB05A3443544440
:1040FC0009F10109DDF810A0CDF810E0B9F1400F7D
:10410C009A4402F10402234401F104011ED1CDE9C9
:10411C000634CDE94E8CCDE94CA5CDE94A7ECDE9EE
:10412C004830019A52F8043F01925BF8042F134473
:10413C00019A1360039B9342F3D106A84FF4947138
:10414C00FFF74CFE002051B0BDE8F08FBE46C446D0
:10415C000746A8461846554698E7136852F8384C57
:10416C0052F8346C4FEAF34A8AEA734A8AEA932A81
:10417C0052F8143C234452F8344C4FEAB44484EAC9
:10418C00F614534484EAD60423448CE7AC9900001B
:10419C004FF0704393F8E02F062A09D1D3F8E83F8B
:1041AC00C3F30313033B042B02D8024AD05C7047C1
:1041BC0000207047B7A90000024AD2F80034002B47
:1041CC00FBD0704700E0014010B504F01BFF40B17C
:1041DC004FF08053904AD3F82433C3F30423C2F82E
:1041EC004035FFF7D5FF10B18C4B8D4A5A6704F060
:1041FC0009FF48B14FF080534FF08042D3F844325E
:10420C00C3F34233C2F83C35FFF7C2FF30B1854AE5
:10421C00D2F8FC3023F08073C2F8FC3004F0F2FECC
:10422C0040B14FF080430022C3F80C21C3F8102199
:10423C00C3F83825FFF7ACFF20B14FF080430322C1
:10424C00C3F8A025FFF7A4FF60B1774B0522C3F894
:10425C0010260122C3F888260022C3F818263F2214
:10426C00C3F814264FF08053D3F83021511C09BFEA
:10427C004FF07043D3F8343193F8E02FD3F8E83F84
:10428C0008BFC3F30313062A4DD1033B042B03D8F9
:10429C00664AD35C002B46D04FF08052644BD2F868
:1042AC000414C3F82015D2F80814C3F82415D2F856
:1042BC000C14C3F82815D2F81014C3F82C15D2F826
:1042CC001414C3F83015D2F81814C3F83415D2F8F6
:1042DC001C14C3F84015D2F82014C3F84415D2F8B6
:1042EC002414C3F84815D2F82814C3F84C15D2F886
:1042FC002C14C3F85015D2F83014C3F85415D2F856
:10430C003414C3F86015D2F83814C3F86415D2F815
:10431C003C14C3F86815D2F84014C3F86C15D2F8E5
:10432C004424C3F8702504F06DFE48B14FF080535F
:10433C004FF08042D3F8583203F04F03C2F8E43EFA
:10434C0004F060FE48B14FF08043D3F80024D2074C
:10435C0044BF6FF00102C3F800244FF08053D3F830
:10436C003021062A26D1D3F83431033B042B02D852
:10437C00304AD35C63B1304AD2F83C3743F48063A3
:10438C00C2F83C374FF08053D3F83031062B11D1A3
:10439C004FF08053D3F83431033B042B02D8274A17
:1043AC00D35C3BB14FF01023D3F808224FF080437D
:1043BC00C3F858254FF01023D3F80022002A03DB52
:1043CC00D3F80432002B22DA1D4901234FF01020C0
:1043DC00C1F804351524FFF7EFFEC0F80042FFF7D3
:1043EC00EBFEC0F80442FFF7E7FE0023C1F80435EA
:1043FC00FFF7E2FEBFF34F8F0A49124BCA6802F473
:10440C00E0621343CB60BFF34F8F00BFFDE70E4B51
:10441C000E4A1A6010BD00BF0030014000C00740BA
:10442C000DF0ADBA00ED00E000500040B2A9000064
:10443C0000C00040ADA9000000100040A8A9000079
:10444C0000E001400400FA05BC0000200090D003FD
:10445C0070B501250268BFF35B8FB2FA82F3C3F12A
:10446C001F03DBB205FA03F422EA040450E8006FE0
:10447C00964204D140E8004CBCF1000FF6D1BFF3DA
:10448C005B8FE7D101480B7070BD00BF0000AD0B16
:10449C0010B50368CB40DB0714D401238B400268B2
:1044AC00BFF35B8F43EA020150E8004F944204D102
:1044BC0040E8001CBCF1000FF6D1BFF35B8FEED1CE
:1044CC00014810BD0148FCE70000AD0B0400AD0B2A
:1044DC00F7B5044618B1012822D003B0F0BD4FF057
:1044EC0080430222C3F80823C3F80401D3F8042143
:1044FC000122DA60074601238DF8073042F210756D
:10450C004FF08046CCB1012CE7D1C7B3D6F80C34B0
:10451C0003F001033B70D6F80C34DA0321D516E016
:10452C004FF080430022C3F80803C3F80021D3F8EE
:10453C00002158600DF10707DDE7B7B1D6F8183444
:10454C0003F003033B60D6F81834D803C5D59DF8A7
:10455C000700012803D104F064FD013DD2D1012CE8
:10456C00BBD10C4B00225A71B7E7D6F81834D903DB
:10457C00B3D5012004F055FD013DF6D1ADE7D6F8D9
:10458C000C34DB03EDD5012004F04BFD013DF6D1DD
:10459C00E7E700BF84100020044B1A7922B90122EE
:1045AC0018609A80024870470248704784100020B7
:1045BC000000AD0B0C00AD0B38B510B1012843D089
:1045CC0038BD4FF08042D2F81834D2F81814C80312
:1045DC000BD4D2F81434D9070FD5D2F81C349B075E
:1045EC0008D40223C2F80433EAE703F00303012BD7
:1045FC0004D013B10020FFF76BFF00234FF0804273
:10460C00C2F818350023C2F80431D2F80431022361
:10461C00C2F80433124AD2F8FC0040F08073C2F89E
:10462C00FC30104B1C6844F0010119605D6859683E
:10463C00491BB1F50A5FFAD31C604FF08043C2F8F6
:10464C00FC0001229A60BBE74FF080430022C3F8C4
:10465C000021D3F80021C3F804031860B0E700BFB1
:10466C0000ED00E0001000E010B54FF08043D3F8EF
:10467C0000216AB10022C3F80021D3F800210122E5
:10468C00C3F80823114B587910B95A711B68984715
:10469C004FF08043D3F8042172B10022C3F80421F7
:1046AC00D3F80421D3F81824D3F81814920704D1A2
:1046BC000122C3F818259A6010BD0222C3F8082302
:1046CC00024BBDE810401B680120184784100020E5
:1046DC00034B083033F81000C0F34010704700BF94
:1046EC00C000002070B500F108030C4C34F81330F6
:1046FC00DA0505460E4607D5C3F3432304EBC30284
:10470C0054F8333052689847A3682BB1E2683146AD
:10471C002846BDE87040184770BD00BFC00000209F
:10472C0010B4124A083032F81030D9051BD5C3F337
:10473C00432123F4F85322F8103002F10E04002028
:10474C0034F8023F13F4807F03D0C3F34323994220
:10475C0009D001302028F3D1002342F8313004482D
:10476C0010BCFFF795BE10BC704700BFC000002006
:10477C001401002038B50246FFF7AAFF094C02F1DC
:10478C00080540B134F8153007495B0B03F5A273EB
:10479C00002041F823001046FFF7C2FF002324F845
:1047AC00153038BDC0000020006000402DE9F341F9
:1047BC0004461D4609B34F4F00F1080837F818603E
:1047CC00B30706D5FFF784FF18B14B4802B0BDE81C
:1047DC00F08104F01F039B0003F1A0430978D3F888
:1047EC00000726F0020620F00F0046F0010640EA12
:1047FC00810127F81860C3F800179AB13D4B177860
:10480C00506804F1080633F8161011F0020F0DD0A1
:10481C000028DAD133F8162022F01C0242EA870273
:10482C0023F81620002D3BD13448CFE721F020018E
:10483C00C904C90C23F816100028EBD0032FC4D8D8
:10484C00526892F800C02FB92D4A0CF5A27C42F8A0
:10485C002C70DFE74FEA8C0202F1804202F5C04275
:10486C0041EA4C31D2F8100520F00300C2F81005D3
:10487C00D2F8100520F4473020F44070C2F810052F
:10488C002002D2F810E500F4F85040EA074040EA64
:10489C000E0041F0200123F81610C2F81005B9E7FC
:1048AC00D5E900672046FFF73BFF002EBCD0114D29
:1048BC00D5E90023964201D19F4219D011480DF140
:1048CC000701FFF7C5FD0D4B98427FF47FAF9DF8B4
:1048DC00072045F8326005EBC20308345F6035F8F9
:1048EC00143043EA422343F4807325F814309BE7D9
:1048FC000022EEE7C00000200400AD0B0000AD0B61
:10490C000060004014010020F8B5044689B33A4E0B
:10491C0000F1080736F81750AB0704D4FFF7D8FEA0
:10492C0008B13648F8BD15F01C0F4B7824D104F0B3
:10493C001F0000F5E07E4FF0A04C5B005CF82EC031
:10494C0091F802E009782CF4E16C43EA8E032CF028
:10495C00070C43EA0C0343EA012300F5E0704FF027
:10496C00A04143F0010345F0030541F8203026F83F
:10497C00175022B92248D5E7012BD8D1D1E71E4ECA
:10498C0004F1080736F817008307CAD592F800C05F
:10499C006146890020F0200001F18041C00401F53E
:1049AC00C041C00C26F817000023C1F8103555780B
:1049BC00002DDFD0D1F81035927823F4981323F41E
:1049CC00F853C1F81035D1F810E5230203F4F8536D
:1049DC002D0443EA0E0305F4403512052B4302F473
:1049EC00801240EA4C30134340F0200026F81700A8
:1049FC00C1F81035BEE700BFC00000200400AD0BAD
:104A0C000000AD0B014BC3E902017047C000002050
:104A1C0008B50246FFF75CFE38B1054B0548083275
:104A2C0033F812305B0B0B7008BD0348FCE700BF7A
:104A3C00C00000200000AD0B0400AD0B38B50F4CCE
:104A4C0094F85850BDB94022294604F1100002F0E8
:104A5C0092F90620FDF764F8094B0A48C3F87C511B
:104A6C00D3F87C214FF00042C3F80423012384F8CF
:104A7C005830636538BD0448FCE700BFC000002017
:104A8C00006000400000AD0B0500AD0B034B93F82C
:104A9C005800003818BF0120704700BFC00000202C
:104AAC0001460148FFF7F4BC100100200146014803
:104ABC00FFF7CEBC1001002010B50246FFF708FE30
:104ACC0002F108041C4B33F81430E0B113F002046B
:104ADC0019D15B0B9A0002F1804000F5C24002F143
:104AEC00804202F5C04204600068D2F8100540F024
:104AFC000100C2F8100529B1012202FA03F30F4A92
:104B0C00C2F8043310BDC3F38203042B10D0052B61
:104B1C0010D04FF0A043D3F8101502F01F03D9406A
:104B2C0001F001010231BDE81040104604F08ABAD0
:104B3C000321F8E70221F6E7C000002000600040E6
:104B4C0008B50246FFF7C4FDC0B102F108010E4BD7
:104B5C0033F81130990711D45B0B01229A409B005A
:104B6C000A4903F1804303F5C043C1F80823D3F885
:104B7C00102522F00302C3F8102508BDBDE808403B
:104B8C000021104604F05EBAC00000200060004016
:104B9C0010B50D4B00F10802044633F81230DB0758
:104BAC000FD5FFF7CDFF204604F01F04FFF7E2FD01
:104BBC0004F5E0744FF0A043022243F8242003488C
:104BCC0010BD0348FCE700BFC00000200000AD0B87
:104BDC000400AD0B2DE9F74F4F4B504850490025C1
:104BEC0001222C461E6836B1D0F8046316421EBF53
:104BFC001C601E68154304338B424FEA4202F1D10C
:104C0C00464BD3F87C31BBB14FF0A046D6F82035DB
:104C1C000193C6F8203501AF4FF00108019C8CB907
:104C2C003E4BC3F87C41D3F87C31D6F82035019348
:104C3C00C6F82035002BEED10124002D53D103B042
:104C4C00BDE8F08F94FAA4F4B4FA84F4354A04F174
:104C5C000803E00832F813103B5C04F0070208FA72
:104C6C0002F223EA02033B54A30003F1A049C1F36F
:104C7C00820AD9F80027CB06D346C2F3014218D5D5
:104C8C00594620465FFA82FAFFF72CFDD9F8003717
:104C9C00C3F301439A4507D10021204604F0D2F911
:104CAC005146204604F0CEF908FA04F4C6F8204523
:104CBC00B4E7022A0CD10321204604F0C3F90AF010
:104CCC000503012BF0D159462046FFF70BFDEBE70E
:104CDC000221204604F0B6F9BAF1030FF3D0032AEF
:104CEC00E2D18A45EEE795FAA5F3B3FA83F304FA19
:104CFC0003F29B0003F1804303F5C04325EA020550
:104D0C00D3F81005D3F81015C0F30420C1F30141FA
:104D1C00FFF7E8FC91E700BF006100400060004035
:104D2C0020610040C0000020044AD2F80034DB07A8
:104D3C00FBD50160BFF35F8F704700BF00E00140FF
:104D4C004FF080531A69B0FBF2F302FB130373B9F3
:104D5C00084B0222C3F80425C3F80805D3F8002435
:104D6C00D207FBD500220448C3F80425704703483A
:104D7C00704700BF00E001400000AD0B0A00AD0B16
:104D8C0010B5054C0123C4F80435FFF7CDFF002303
:104D9C00C4F8043510BD00BF00E0014001460148D5
:104DAC00FFF756BB1C010020F0B5D0F8243187B0BA
:104DBC0004460D46F3B10023C0F82431D0F8243159
:104DCC00D0F80431B3B98B68C0F8083302238B6078
:104DDC008B68C0F80433D0F860311BB1D0F80032C6
:104DEC009F0502D4012323626361012385F82E30D1
:104DFC0007B0F0BDD4F80431002B41D00023C4F827
:104E0C000431D4F804312B6A5E060AD495F82E309E
:104E1C003BB92946204604F031F980F0010085F8B1
:104E2C002E002B6A13F0040C3BD105F10C070FCFAD
:104E3C0001AE0FC63B68C4F860C13360D4F8603172
:104E4C00C4F85CC1D4F85C3195F8303013B195F8E6
:104E5C002E3033B30023C4F80032AB602D4BC4F8B2
:104E6C00083344F30733002B1BDB5A09012103F0F1
:104E7C001F03994002F16003274A42F8231010E007
:104E8C00C4F84831D4F848312B7B5BBB05F10C07D7
:104E9C000FCF01AE0FC63B68336095F83030002B56
:104EAC00D9D0D4F8C434C4F8C43498072CD45907D6
:104EBC002CD4DA072CD495F82E309B00DBB28DF86D
:104ECC00003095F830300BB985F82F302B6A5B0722
:104EDC0003D595F82E30002B8AD0D5E900316846E1
:104EEC00984785E74FF40073C4F8003240F2022370
:104EFC00AB6003F1CE73C4F80833AB68C4F8043369
:104F0C000123A360236273E70123D8E70223D6E7CA
:104F1C000323D4E702029C0100E100E0F8B5067916
:104F2C00244D4FF0340E0EFB06FE05EB0E0494F8E8
:104F3C002D70002F3CD1D0F800C045F80E20A76092
:104F4C00636084F8307084F82F704B7B84F83230B7
:104F5C008B7B84F83330C3B1CB7B2BB9D1E90043C5
:104F6C00CCF80845CCF80C358B68CCF8243522B13C
:104F7C00006840F30730FCF7D3FD342303FB0655E0
:104F8C000D48012385F82D30F8BD0B6803F01F0385
:104F9C004FF0A04403F5E07340F20C6744F8237023
:104FAC004B6803F01F0303F5E07344F82370D3E759
:104FBC000248E9E78C1000200000AD0B0500AD0B9A
:104FCC00036802790621C3F80015044B342101FB58
:104FDC000233022283F82D20704700BF8C10002072
:104FEC0001790C4B0268342000FB013300210A4884
:104FFC009960C2F80803D2F8000220F4BC50C2F841
:10500C000002C2F80015012283F82D2083F82F101E
:10501C00704700BF8C10002002029C012DE9F04764
:10502C00DFF8ECC290F804E00468342303FB0EC3F1
:10503C001746002283F82E204B680D464BB1CB68E7
:10504C0003F06043B3F1005F03D0B24E3046BDE8CD
:10505C00F0873426B04BC4F8083306FB0EC696F81E
:10506C002F3003F0FF0A23B1B368C4F80433AB4EFE
:10507C00ECE717F0140F0CBF0123002386F82F3038
:10508C00A946B9E80F0006F10C08A8E80F00D9F8FA
:10509C000030C8F80030C7F3001386F830303762A0
:1050AC006B78C4F88835C4F804A1D4F80431C4F87A
:1050BC0024A1D4F82431C4F860A1D4F86031C4F828
:1050CC0048A1D4F8483117F0010318BF0123C4F8E4
:1050DC00503517F0020318BF0123C4F840352B7864
:1050EC00032B00F2B980DFE803F08BA46D022B696F
:1050FC0003F06043B3F1005FA7D14FF48073C4F8A1
:10510C0000326B68EA68C4F84425C4F848350023BB
:10511C00C4F85031D4F8502101222262A260D4F894
:10512C005021002AFBD0C4F85031D4F850312A69F0
:10513C00AB68C4F84425C4F84835342303FB0EC3CC
:10514C004FF480229A600823754E380707D42A78CA
:10515C00032A04D00122E2506B6803B96261342344
:10516C0003FB0EF30CEB03025CF80310002976D161
:10517C000120D4F84831002B00F08980D4F8043198
:10518C00002B40F08780D4F82431002B00F0958060
:10519C000123C4F82411D4F82421D4F86051D4F894
:1051AC000022002D00F0818012F4007F02F4807246
:1051BC007ED120626061002ADBD0C4F84811D4F89B
:1051CC004831D6E76B68EA68C4F84425C4F848351A
:1051DC002B6903F06042B2F1005F7FF436AFAA682E
:1051EC00C4F834354FF48453C4F83825C4F800326D
:1051FC00342303FB0EC302229A6001232362A2E72D
:10520C006B68EA68C4F8442517F0200FC4F84835D9
:10521C004FF0340308D04FF48072C4F8002203FB23
:10522C000EC34FF48022E7E74FF40072C4F800225B
:10523C00DFE76B68EA68C4F83425C4F838354FF4F6
:10524C008053C4F80032342303FB0EC302229A604D
:10525C0001232362002377E7324E082375E7790791
:10526C0044BF002393607A0606D4342303FB0EC399
:10527C009A6842F002029A60342303FB0EC39A68C8
:10528C0042F400729A609B68C4F80433DEE6D4F8EA
:10529C00043123B1C4F80411D4F8043173E7D4F801
:1052AC002421002A3FF465AF73E72062606160E758
:1052BC00002A82D1002B3FF45CAF3421D4F8C434E3
:1052CC00C4F8C43401FB0EC2002082F82F008BB14D
:1052DC00154A164E13F0010F18BF164613F0020FA5
:1052EC0002F1010218BF164613F0040F104B18BF41
:1052FC001E46ABE67B063FF5A9AE0EFB01C1204670
:10530C0003F0BCFE094B002808BF1E469EE600BFFA
:10531C008C1000200A00AD0B02029C010B00AD0B9F
:10532C000000AD0B0400AD0B0000AE0B0100AD0B8B
:10533C000200AE0B01490248FFF736BD8C1000206D
:10534C000030004002494FF04020FFF72DBD00BF58
:10535C00C01000202DE9F04100F01F0001F01F06E5
:10536C0001244FF0A04504FA00F806F5E07200F5B0
:10537C00E07040F20D63B440C5F80885C5F80845E7
:10538C0045F8203045F82230042003F04AFE092766
:10539C00D5F810351C420DD10420C5F80C8503F04E
:1053AC0040FE013FC5F80885042003F03AFE17F0D3
:1053BC00FF07EDD14FF0A0450420C5F80C4503F0D4
:1053CC0030FEC5F80845042003F02BFED5F8103547
:1053DC000348F34003F00103C01ABDE8F08100BF9D
:1053EC000100AD0B10B5144C144A1549032323616D
:1053FC006361144BA261E3614FF480632362002369
:10540C00A3626362E36222660F4A62661022A2669E
:10541C00E01D2367E366636701F081FCBFF35F8FD8
:10542C000A49204601F07BFCBFF35F8F2023A37158
:10543C00BFF35F8F10BD00BFF4100020BCA90000AB
:10544C00C5A900000C2B0020FC2A0020C9A90000D3
:10545C00F7B505460E464FF02003EFF3118783F3A3
:10546C001288BFF36F8F00F029FE042D96BF184BE6
:10547C00184B53F8253000220446009216482A4651
:10548C00452101F0C1FB3EB1F369C3F308031BB125
:10549C001248452101F0B8FB34B1204603F03EFE22
:1054AC00034608B1027802B90D4B0E48224645213D
:1054BC0001F0AAFB31462846FEF7F6F987F311886E
:1054CC00BFF36F8F204603B0BDE8F040FCF7B8BEC9
:1054DC00B09A0000D0A90000E6A9000013AA0000B1
:1054EC00DEA9000039AA00000F4B70B553F820401C
:1054FC00013053F82060A64200D870BDD4E90035C5
:10550C00284698476DB138B10028B8BF4042EB68C7
:10551C00FF28A8BFFF201870EA68537843F00103F6
:10552C0053700834E7E700BFC49A000008B50A4B73
:10553C00012203201A70FFF7D7FF00F091FF04201F
:10554C00FFF7D2FF00F01CF9FAF72CFF034A137B8C
:10555C0023F00103137308BD0C2F00203802002028
:10556C0008B50348034A0021121A03F0CAFD08BD0E
:10557C0040010020102F002070B5002386B00122BE
:10558C00CDE90423134E144D01930F22CDE90232C1
:10559C001249182303FB005506EBC01604464FF4C2
:1055AC00C07000FB04110E4B00954FF4A0723046F6
:1055BC0000F088F8737B0B4AEE6023F004037373DE
:1055CC004FF4046304FB033313442C756B6006B077
:1055DC0070BD00BFB80100209C1100208037002056
:1055EC0031910000402F002080B50020A6B0FFF7BD
:1055FC007BFF2D4B83F308882C4D2D4E6B692D4F63
:10560C0043F400736B610024E02385F82230EC77BF
:10561C002C766C76AC7685F820406B6A43F4E023EC
:10562C006B6285F82340FCF77FFDFCF72DFA4FF0F9
:10563C00FF33AB62EB62FCF7BDFEFCF717FE40F2EA
:10564C000113ADF8243006ABB360CDE91F442294AE
:10565C0003F04BFD0120FFF747FF0220164DFFF72B
:10566C0043FF00F083FC154BB561059301231449EE
:10567C000094CDE903434FF420523B46CDE901445D
:10568C00284600F01FF86A7B064622F004022846E2
:10569C006A7303F0F8FD2046FFF76EFF3A46314679
:1056AC002846FCF717FB00BF8037002000ED00E018
:1056BC009C1100203955000038020020A0AA0000DF
:1056CC00003900202DE9FF410E9E06730426467317
:1056DC000D9E867300F158050F46D61DC0E9165570
:1056EC000C9A002526F007064037C0E90655C0E99C
:1056FC0019768560C573C56606F1400802920B9A4F
:10570C00019288440A9A009242460446FCF7B0FA89
:10571C00044B65659B6803B11B6F2367404604B05F
:10572C00BDE8F0819C110020F0B587B000250595EF
:10573C00109D04950F9D03950E9D0295DDE9127643
:10574C000D9D01950C9D00950446FFF7BBFFB6F12E
:10575C00FF3F08BFB7F1FF3F05D056EA070305D15D
:10576C00204600F083FB204607B0F0BD03493A46C3
:10577C00334604F1180000F081FDF4E7FF910000BE
:10578C002DE9F043294C2A4D87B02646AE4204F150
:10579C0030040FD300F0BAFB244CDFF898904FF490
:1057AC00004640F2E737AC4220D307B0BDE8F043E7
:1057BC0000F0C0BB54F8043C059354F8103C04931F
:1057CC0054F8143C039354F8183C029354F81C3CC2
:1057DC00019354F8203C009354E90A2354E90C013A
:1057EC00FFF770FF54F8303C5E65CEE7636A5A1CD5
:1057FC000DD023EAE37300213846C3FB060151EABE
:10580C00C333D4F8008004D1404600F02FFB303471
:10581C00C9E74FF47A720023FAF75AFC02460B469A
:10582C0008F11800494600F029FDF0E764960000E5
:10583C0064960000FF91000038B504464FF0200339
:10584C00EFF3118583F31288BFF36F8F03F02BFDF9
:10585C0048B10022826703F016FD29460548BDE8D1
:10586C00384000F0F1BAD4E902329A4218BF013341
:10587C00A360F2E70D2F002013B54FF02004EFF3D7
:10588C00118184F31288BFF36F8F846844B1013C9B
:10589C00846081F31188BFF36F8F002002B010BDBC
:1058AC0052EA030406D181F31188BFF36F8F6FF0B6
:1058BC000F00F3E7CDE900230246024800F0A6FAF8
:1058CC00ECE700BF0D2F00202DE9F04F4A4E85B0BC
:1058DC0004464FF0FF384FF0FF394FF02003EFF341
:1058EC00118783F31288BFF36F8FD4F880508DB972
:1058FC00022104F1980003F02DFC002843D1002371
:10590C00CDE90089029304F1880239463B4800F046
:10591C003BFCE2E7D4F884202B68C4F88030954235
:10592C0008BFC4F88430D4F8983043F00203C4F8AC
:10593C009830EB6823F0040343F00103EB606B68D1
:10594C0087F31188BFF36F8F284698474FF02003D9
:10595C00EFF3118B83F31288BFF36F8FEB6899070A
:10596C0023F0010219D4EA60D4F8983023F0020332
:10597C00C4F898308BF31188BFF36F8FDB05ACD470
:10598C0000F000FBA9E704F1900500220121284654
:10599C0003F0BBFC0028F8D1B1E7306823F0030317
:1059AC00EB600028E0D00027D0F800A03B46002890
:1059BC00DAD04268954201460CD101689FB97268F1
:1059CC003160824200D1716040F8083BFFF734FF30
:1059DC0039460023BAF1000F0BD0DAF800205046FC
:1059EC000F469246E3E739607268824208BF7760DF
:1059FC00EAE75246F3E700BFC01100200D2F00204C
:105A0C00F8B5C3689A0704460F46C3F340062CD476
:105A1C005B071AD40B680BB983680B60E368DD076E
:105A2C0044BFA3683B603D684CBF02260126002D95
:105A3C003AD01F4B9B68AB420AD0D5F89830D807A8
:105A4C00C3F3800214D46FF0120600233B6025E0F0
:105A5C0003F05BFBD5F898300028F0D1D907C3F3DD
:105A6C00C002F0D552B15B0708D46FF00F06ECE71B
:105A7C00002AFAD1C3F3C003002BF6D10023236014
:105A8C00D5F8843063B9C5E92044284603F06DFB92
:105A9C00E36843F00403E3603B68A3603046F8BD61
:105AAC001C60C5F88440F0E76FF01506CDE700BF29
:105ABC009C110020F0B589B004460020C4E92000F8
:105ACC000E9D04F18800C4E9220004F19000C4E9A1
